:020000021000EC
:10C0000000000120DD690200056A0200076A0200E3
:10C01000096A02000B6A02000D6A020000000000BB
:10C02000000000000000000000000000D1E201005C
:10C03000116A020000000000F1E20100156A02002E
:10C04000176A0200176A0200176A0200176A0200E4
:10C05000176A0200176A0200ED180200BD1C0200F8
:10C06000652502000D260200176A0200176A020009
:10C07000176A0200176A0200176A0200176A0200B4
:10C08000176A0200FDE30100176A0200176A020046
:10C09000176A0200176A0200B9680200176A0200F4
:10C0A000176A0200176A0200176A0200176A020084
:10C0B000B5260200176A0200000000000000000020
:10C0C000176A02003D270200176A0200176A020081
:10C0D000176A0200176A0200176A020000000000D7
:10C0E0000000000000000000000000000000000050
:10C0F0000000000000000000000000000000000040
:10C10000000000000000000000000000000000002F
:10C11000000000000000000000000000000000001F
:10C4000010B5054C237833B9044B13B10448AFF38E
:10C4100000800123237010BD602000200000000078
:10C420007C6D0200084B10B51BB108480849AFF3FA
:10C4300000800848036803B910BD074B002BFBD0F0
:10C44000BDE81040184700BF000000007C6D0200EE
:10C45000642000205C20002000000000154B002B11
:10C4600008BF134B9D46A3F5803A00218B460F462B
:10C470001348144A121A00F065F80F4B002B00D035
:10C4800098470E4B002B00D0984700200021040055
:10C490000D000D48002802D00C48AFF3008000F0DA
:10C4A0002BF82000290007F005F800F011F800BF74
:10C4B0000000080000000120000000000000000053
:10C4C00060200020B84200200000000000000000B2
:10C4D00008B5074B044613B10021AFF30080054BAC
:10C4E0001868836A03B19847204600F033F800BF0C
:10C4F000000000008C6A020070B50E4B0E4CE41A6E
:10C50000A41000251E46A54204D056F825309847B1
:10C510000135F8E70AF0ACFA084C094BE41AA4100C
:10C5200000251E46A54204D056F82530984701350F
:10C53000F8E770BD5420002054200020582000202F
:10C540005420002002440346934202D003F8011B0A
:10C55000FAE77047FEE700BF2DE9F84F234B1A7842
:10C560008AB3DFF88CB0DFF88C80DFF88C90002481
:10C570004FF0010A03E00134E4B2944223D226B220
:10C58000D8F80050DBF8003015F836000AFA00F150
:10C59000194205EBC607EED0154A23EA01031360E2
:10C5A00005F09AF915F83650D9F800300AFA05F175
:10C5B0000B4000FA05F18B4207D00C4B01341A787E
:10C5C000E4B29442DBD3BDE8F88F79787B68A1F1BF
:10C5D0000101B1FA81F14909002BEED0091A284670
:10C5E000B1FA81F149099847E7E700BF84200020AC
:10C5F000AC20002080200020A820002070B5064636
:10C60000114800F06BF940B9104D01242B68B4407B
:10C610001C4203D023EA04042C6070BD304605F0B0
:10C620005BF90B4E326860B122432B6809493260D6
:10C630001C432C60044809680022BDE8704000F0EB
:10C64000DBB822EA0402F0E788200020AC200020BA
:10C65000A82000207C200020F0B5042A85B01746D1
:10C6600002D8072005B0F0BD0191054604F0DEFEBA
:10C670000199002830D01C4CDFF888E01B481C4A88
:10C680001C4B256000264C1E07608EF800101660BB
:10C690001E60E4B2032709B918E01C4623B205EB7B
:10C6A000C30215F833009378134A8DF80D3003A9AF
:10C6B0008DF80C708DF80E608DF80F6004F0B0FFEF
:10C6C000631E0028CED1DBB2002CE6D10B4A0C4809
:10C6D000002100F065F8C5E7019104F06FFE0199B3
:10C6E0000028C8D0BEE700BF802000207C200020AA
:10C6F000A8200020AC200020FDC5010059C5010084
:10C70000906A02008420002070B5084D2B785BB140
:10C71000074E00243368012113F8340005F04AF86D
:10C720002B780134A342F5D8002070BD842000206E
:10C730008020002000B585B000230390194644F204
:10C74000010001AAADF80430029300F003F805B02F
:10C750005DF804FBBFF34F8F0549064BCA6802F42E
:10C76000E0621343CB60BFF34F8F00BFFDE700BF14
:10C7700000ED00E00400FA0510B503F0C7FA037BF2
:10C7800003B910BD83680068BDE81040184700BFBA
:10C79000024B013018600020704700BFB02000201D
:10C7A00070B582B0056822B12B7B2BB1082002B096
:10C7B00070BD072002B070BD6B68002BF6D1144627
:10C7C0000E46042219462846FFF7BCFE321C084BD1
:10C7D000AC6018BF0122009306484FF47A712B46D3
:10C7E00003F0A4F80028686014BF00200E20DEE7E4
:10C7F00079C70100946A02002DE9F043344B354CAF
:10C800004768D4F80885D3F8009085B0002F46D04B
:10C81000037B15460C460646002B44D108F1010364
:10C82000590809FB04113560B1FBF3F2EFF30584FD
:10C830007CB94FF00208CDF8008038460421234629
:10C8400003F0C8F80128054634D0042005B0BDE83F
:10C85000F08304AC002544F8045D38460095234677
:10C86000092103F0B7F80128EFD102F03DFC009553
:10C87000024623463846062103F0ACF80128E4D1ED
:10C88000039B43B1144B4FF080525A6040BFBFF33B
:10C890004F8FBFF36F8F012333730020D6E708203B
:10C8A00005B0BDE8F083384603F024FA0028B5D07F
:10C8B0000020CBE702F012FCCDF8008002462946AA
:10C8C0003846234603F086F80128BED1E3E700BFCF
:10C8D000B02000200010014000ED00E042684AB3A3
:10C8E00010B5044684B0EFF3058252B902230093D9
:10C8F0000321134603F06EF8012817D0042004B07A
:10C9000010BD04AB002243F8042D0821009203F06F
:10C9100061F80128F2D1039B43B1074B4FF08052DD
:10C920005A6040BFBFF34F8FBFF36F8F002020735B
:10C9300004B010BD0820704700ED00E0F0B4EFF344
:10C94000108472B60E4B9A68B2B90E4901259D60EB
:10C95000D1F880700C4D2E463D401D60C1F88060BE
:10C96000D1F884505D604FF0FF33C1F8843002701D
:10C9700004B962B6F0BC704701230370F8E700BF4A
:10C98000AC42002000E100E0FC06FFBC094B9A68C5
:10C9900072B168B910B4EFF3108272B606491C6820
:10C9A0000C605C684C60986002B962B65DF8044B3C
:10C9B000704700BFAC42002000E100E020B1034B13
:10C9C0005B6D03600020704703207047B420002097
:10C9D00030B50E4C207883B010B1002003B030BDCC
:10C9E000012500950A490B4A4FF4806300F0E8FFE7
:10C9F00010B1082003B030BD00900749074A10234A
:10CA000001F04AF80028F4D12570E7E71C25002042
:10CA1000986A02001C210020A06A02000C2100205C
:10CA20000EB400B582B003AB02AA53F8041B42F85F
:10CA3000043D01F067F902B05DF804EB03B0704704
:10CA400030B5254C14F8113083B02BB314F81130E5
:10CA5000013BDBB204F8113014F811309BB104EB48
:10CA60004104637813B36378013BDBB2637063788E
:10CA7000E3B91A4B53F821301B68DB69084603B051
:10CA8000BDE830401847154D019155F821301B681D
:10CA90000846DB699847019904EB410463783BB190
:10CAA0006378013BDBB2637063785BB103B030BD88
:10CAB0000A4D55F821305868022103B0BDE83040D6
:10CAC00005F048BD054D019155F821301B68084619
:10CAD000DB6998470199ECE7D4410020202500202C
:10CAE0002DE9F84F0468054694F8200094F8229048
:10CAF0000F46904605F032FB94F8210005F02EFB1E
:10CB000007EB47062B68B60003EB060B26449BF8A1
:10CB1000080005F023FB9BF8090005F01FFB4246C7
:10CB200000236868394605F0CBFC4946374805F0D4
:10CB3000B1FB727A337A4FF0010A07EB47060AFA23
:10CB400002F00AFA03F304EB86064946184305F09F
:10CB5000D3FB6B68D6F804B094F8200019684FEA4C
:10CB6000C902BBF1000F2DD002F1804202F5F8326C
:10CB700001F5A47105F0ACFA524668680321002360
:10CB800005F09EFC6A68224B127994F8210000217E
:10CB900043F822106B681A6802F5A4714C3205F054
:10CBA00097FA94F8200005F0B9FA94F8210005F0FE
:10CBB000B5FAC6F804806B68164A1B790321D15474
:10CBC000BDE8F88FBB0003F5A07902F1804249442B
:10CBD00002F5F83205F07CFA68685A465B46032194
:10CBE00005F06EFC6B680A4A19681B7994F82100FD
:10CBF00007F5A87751F8271042F823106B681A68D8
:10CC000002EB09014C3205F063FACAE7FF3F0F005F
:10CC10002C250020282500202DE9F0470468054632
:10CC200094F8228094F820000E46174605F096FAF4
:10CC300094F8210005F092FA4FEA46094146374838
:10CC400005F028FB09EB060304EB83034FF0010A10
:10CC50005A7A1B7A0AFA02F00AFA03F31843414699
:10CC600005F04AFB6B682E4A196894F8200087B3D8
:10CC70004FEAC808424401F5A471A76905F028FAF3
:10CC8000524668680321002305F01AFC6A68254BA8
:10CC9000127994F82100002143F822106B681A6879
:10CCA00002F5A4714C3205F013FABFB294F82000DB
:10CCB0004E4405F033FA94F8210004EB860405F0A5
:10CCC0002DFA67606B68184A1B790321D154BDE8BF
:10CCD000F0874FEA860A0AF5A07A4FEAC80842446C
:10CCE000514405F0F5F968683A463B46032105F0E2
:10CCF000E7FB6B680B4AD3F800E0197994F8210040
:10CD000006F5A8735EF8233042F821306B681A6884
:10CD100002EB0A014C3205F0DBF9C7E7FF3F0F00D9
:10CD200004F001402C250020282500202DE9F84F93
:10CD30000468054694F8228094F820000E461746B1
:10CD400005F00CFA94F8210005F008FA41462E4847
:10CD500005F0A0FA94F8212094F820304FF0010952
:10CD600009FA02F009FA03F31843414605F0C4FA40
:10CD70006B6894F82000196806F110029200D2B294
:10CD80000A4401F5A67105F0A3F96A681F4BD2F8B1
:10CD900000B01878DBF8101506EB46039B0004EB97
:10CDA000030AC9B2DAF80420884214BF3946791C54
:10CDB00091421CD394F82130414609FA03F005F062
:10CDC00069FACAF8047003213A460023686805F03E
:10CDD00077FB404605F046FA6A680D4B11790D4A1B
:10CDE00043F821706B681B79D654BDE8F88FE05882
:10CDF00094F8214004F0EEFB0BF5A67102462046A4
:10CE000005F066F9DDE700BFFF3F0F003425002085
:10CE10002C250020282500202DE9F04F036893F8E9
:10CE20002340022C83B003D0082003B0BDE8F08F6C
:10CE30004E000D46711803EB81010446486882429A
:10CE400090463AD0D4F804C0584F9CF804E017F844
:10CE50000E10C9B2FF2912D0FE290BD001F5A8711E
:10CE6000DCF800C0DFF84C915CF821C059F82E10B6
:10CE70008C4501D01120D8E7FF2107F80E10FE21C4
:10CE800007F80E1000B3996988421DD2204612B1EE
:10CE90008A42C0F087802946FFF7BEFE2368DB691F
:10CEA00083B16068424A0179022305EB41051946C6
:10CEB000535505F03DFB0020B7E7DB6913B162680D
:10CEC000107998470020B0E7002A3ED09B699A422B
:10CED00063D3D4F80090019299F8200005F03EF950
:10CEE00099F8210005F03AF906EB050A23684FEAA4
:10CEF0008A0A03EB0A0B9BF8080005F02FF99BF850
:10CF0000090005F02BF9D9F81830019A9A420CD390
:10CF1000226859F80A0092441FFA83F89AF80A1016
:10CF2000003118BF012104F063FB2E4409EB860990
:10CF3000424600236068294605F0C2FAC9F8048019
:10CF400063681B79FF22FA54A8E7D4F80090019295
:10CF500099F8200005F002F999F8210005F0FEF893
:10CF600006EB050A2368019A4FEA8A0A03EB0A0BCB
:10CF700090469BF8080005F0F1F89BF8090005F0D1
:10CF8000EDF8236859F80A009A449AF80A10B1FAA1
:10CF900081F1490904F02CFBC7E720462946FFF739
:10CFA0009FFD7BE72946FFF7C1FE77E72825002094
:10CFB000D44100202C2500202DE9F84F036893F878
:10CFC0002340D3F818E0022C02D00820BDE8F88FE7
:10CFD0004F00044678180D4603EB80001FFA8EF1CF
:10CFE0005C4E406801FB02F2A6FB0226C6F34F1618
:10CFF00086423AD06168DFF864810A7918F8023015
:10D00000DBB2FF2B12D0FE2B0AD003F5A873096800
:10D01000DFF84CC151F823105CF82230994202D05D
:10D020001120BDE8F88FFF2308F80230FE2308F82E
:10D03000023018B3864521D932462046294616B11A
:10D04000B64500F28480FFF7E7FD2368DB694BB14A
:10D050006068414C0379022205EB43051146625595
:10D0600005F066FA0020BDE8F88FDB69002BF9D0E7
:10D070006268107998470020BDE8F88F002E3BD0F9
:10D08000B6455ED8D4F8009099F8200005F066F80F
:10D0900099F8210005F062F807EB050A23684FEACA
:10D0A0008A0A03EB0A0B9BF8080005F057F89BF877
:10D0B000090005F053F8D9F818309E420BD32268C6
:10D0C00059F80A0092449EB29AF80A10003118BF2B
:10D0D000012104F08DFA2F4409EB87093246002321
:10D0E0006068294605F0ECF9C9F8046063681B79AB
:10D0F000FF2208F80320A8E7D4F8009099F8200050
:10D1000005F02CF899F8210005F028F807EB050A3E
:10D1100023684FEA8A0A03EB0A0B9BF8080005F024
:10D120001DF89BF8090005F019F8236859F80A0062
:10D130009A449AF80A10B1FA81F1490904F058FAB0
:10D14000C9E7324620462946FFF7CAFC7DE7FFF7CC
:10D15000EDFD7AE71F85EB51D44100202825002002
:10D160002C2500202DE9F04F8FB041B1076897F8CA
:10D1700023304BB1082630460FB0BDE8F08F0B26A8
:10D1800030460FB0BDE8F08F0C469346054604F0DC
:10D1900033FF18B1852801D00426ECE704F046F9E6
:10D1A000002800F0BE81B94BDFF8F4A21A6802F043
:10D1B000F002FF2300204FF0FF31303A18BF012268
:10D1C000F872F87587F8203087F8213087F8223018
:10D1D0003B727B727B7539603975F96007F120000D
:10D1E0008AF8002004F012FF002840F0DD8107F1EA
:10D1F000210004F00BFF002840F0D68107F1220047
:10D2000004F0CCFF002840F04D81A4F104094FF454
:10D21000A078844605970394064659F8043FF2B275
:10D22000591C174600F0C08003992A6804923144C3
:10D2300092F82320097A0C46002A00F0ED81049C24
:10D24000082694F82000FF2801D004F01BFF94F872
:10D250002100FF2801D004F015FF94F82200FF28D8
:10D2600001D004F0D5FF04F10B074FF0FF08233481
:10D270004FF0FF3A4FF0000917F8030CFF2803D0D6
:10D2800004F000FF07F8038C17F8020CFF2803D006
:10D2900004F0F8FE07F8028C57F80B0C421C03D080
:10D2A00004F046F947F80BAC07F80C9BA742E3D112
:10D2B000686805F0B7F85EE7049A089942F82130EB
:10D2C000002C00F0EA814FF0A042012101FA03F3A3
:10D2D000C2F80C35099BCDF81CC033449B0003F108
:10D2E00008000693049B184404F090FE069BDDF8AA
:10D2F0001CC0002840F0B98103F109000693049B8B
:10D30000CDF824C0184404F081FE069B0790DDF898
:10D3100024C0002840F0A981049CCDF82CC02344EF
:10D3200003F10801187A0991049304F017FF049B94
:10D33000587A04F013FF049B6A68187A11680A93FC
:10D3400004942346089C0690414453F82400089115
:10D3500004F040F908990246069804F0B9FE049BCF
:10D360006A6853F8240011680A9B01F5A4715B7A7E
:10D370000693049104F02EF9069B04990246184680
:10D3800004F0A6FE0999079C4FF00103CB706B686F
:10D390001B79394606EB43033D4F22462846FC5491
:10D3A000FFF73AFDDDF82CC0012E08F104086BD11F
:10D3B000039C059F334666469C462369B3F5805F10
:10D3C000C0F05681B3F5005FC0F05D81B3F5804FCA
:10D3D000C0F05781B3F5004FC0F05181B3F5803FE5
:10D3E000C0F05781B3F5003FC0F05181B3F5802FF5
:10D3F000C0F04B81B3F5002FC0F090801B0AB3F54D
:10D40000805FC0F04881B3F5005F4FF00903C0F0C2
:10D4100086800022062168688DF831208DF8322040
:10D420008DF833108DF8303003791A4A0D930CA91A
:10D4300004F094FF804600287AD16B6824691B6849
:10D44000D3F810352401DBB2DC40BC6168684FF0D2
:10D45000010805F031F86868CDF800802246042301
:10D46000022105F041F86868022105F073F8C7F859
:10D470001CB06B6808481B79084A87F82380FF2195
:10D4800040F82350D15476E60126C6E6E80F00F0B6
:10D49000D441002041CA0100202500202825002079
:10D4A000342500202E6896F82000FF2801D004F0D3
:10D4B000E9FD96F82100FF2801D004F0E3FD96F87D
:10D4C0002200FF2801D004F0A3FE06F10B04FF2781
:10D4D00023364FF0FF394FF0000814F8030CFF28F3
:10D4E00003D004F0CFFD04F8037C14F8020CFF28ED
:10D4F00003D004F0C7FD04F8027C54F80B0C431C65
:10D5000003D004F015F844F80B9C04F80C8BB442DB
:10D51000E3D1686804F086FF04262CE60723DBB21B
:10D5200077E703F04BFF00283FF43DAE032622E6E9
:10D530002E6896F82000FF2801D004F0A3FD96F88D
:10D540002100FF2801D004F09DFD96F82200FF285D
:10D5500001D004F05DFE06F10B044FF0FF09233605
:10D560004FF0FF3A002714F8030CFF2803D004F013
:10D5700089FD04F8039C14F8020CFF2803D004F082
:10D5800081FD04F8029C54F80B0C431C03D003F0FB
:10D59000CFFF44F80BAC04F80C7BB442E3D16868CD
:10D5A00004F040FF4646E6E52E6896F82000FF2886
:10D5B00001D004F067FD96F82100FF2801D004F0A7
:10D5C00061FD96F82200FF2801D004F021FE06F14B
:10D5D0000B044FF0FF0823364FF0FF39002714F8F3
:10D5E000030CFF2803D004F04DFD04F8038C14F85D
:10D5F000020CFF2803D004F045FD04F8028C54F817
:10D600000B0C421C03D003F093FF44F80B9C04F86E
:10D610000C7BB442E3D17CE771000498099131445A
:10D620000891890000EB010E0693CEF804208EF8D5
:10D630000A402A68CDF81CC018460A444FF003037C
:10D640008DF83030927AB2FA82F24FF0010352092B
:10D650000CA98DF832308DF8312003F0F1FE069BD5
:10D66000DDF81CC000283FF427AE2C680426E8E54E
:10D670009AF80030002B3FF452AF6346C9E603230B
:10D680004DE702234BE7634649E7062347E70523B7
:10D6900045E7042343E7082341E74FF0A042012177
:10D6A00001FA03F3C2F8083514E600BFF8B50546E1
:10D6B00040682C681E4E0379E27A002706F8137042
:10D6C0008AB906EB4306E27D0027777002BB194A50
:10D6D000FF21D15404F0F0FE686804F0D1FE02236B
:10D6E00084F82330F8BD2B682068997AB1FA81F16B
:10D6F000490903F07DFF206803F03EFF676068681A
:10D70000E27D037906EB430600277770002ADED01E
:10D710002B68E068997DB1FA81F1490903F068FF4F
:10D72000E06803F029FF276168680379CFE700BF4D
:10D73000D4410020282500202DE9F843074606683B
:10D74000406804F0ABFE0221786804F003FF96F80D
:10D75000200004F003FD96F8210004F0FFFC0025F2
:10D7600006F10B044FF001094FF0A04822786B003E
:10D770002B44B2B13A6802EB83039B7ACBB954F8DD
:10D780000B3C09FA03F3C8F8083554F80B0C03F006
:10D790000FFF14F8030C04F0E1FC14F8020C04F081
:10D7A000DDFC0C341DB186F82350BDE8F88301255B
:10D7B000DCE754F80B3C09FA03F3C8F80C35E4E74E
:10D7C0002DE9F04F784E337883B08246894617466C
:10D7D0001BBB764ADFF8E0E1DFF8E081B3624FF48B
:10D7E000806C10257362F362B365F3657365022480
:10D7F0006F49B261B264C6F820C0C6F84CE0F01DB3
:10D80000C6F81C8035653461746109F020F9304632
:10D81000684909F01CF92023B371EFF311804FF030
:10D82000800181F311884FEA4A0303EB0A084FEAAB
:10D83000C80806EB08020190D16A012949D035D306
:10D8400002293DD10AF1010A0AEB4A0A556A06EBA0
:10D85000CA0A4FF0000B1DE0126A641BBC4223464B
:10D86000A2EB050428BF3B469C42DAF8040028BF1F
:10D870001C4622462844494609F0DEF806EB080318
:10D8800025441A6A954208BF00253F1BA344A144C2
:10D890005D6217D006EB0802936AAB4203F1FF34D6
:10D8A000DAD8126A1344013B5C1BD7E7906A516ACD
:10D8B00088429CBF126A80180138411A8F4238D9B9
:10D8C0004FF0000B019B83F31188584603B0BDE86D
:10D8D000F08F916A546AA14225D90139126AC4EBCA
:10D8E000010B534406EBC306203675682E4BBB452F
:10D8F00028BFBB46571B0AF1010ABB450AEB4A0A7F
:10D900003AD303EBCA04494660683A462844C7EB59
:10D910000B0509F091F8606809EB07012A4609F048
:10D920008BF87560CEE7126A88180138C4EB000BDB
:10D93000D7E7534406EBC30606F12008346AD8F84B
:10D940000460194BA41B0AF1010AA7420AEB4A0A18
:10D950001DD303EBCA0549466868224630443E1B86
:10D9600009F06AF8686809EB0401324609F064F8C6
:10D97000BB46C8F80460A5E703EBCA0349465868EC
:10D980005A4628445D4409F057F875609AE703EB5E
:10D99000CA03494658683A4630443E4409F04CF8B8
:10D9A000BB46C8F804608DE7D8410020A86A020091
:10D9B000B46A0200B86A0200382500204825002019
:10D9C0002DE9F04F2E4C267883B005460F46904641
:10D9D00099465EB322692A4BAA424ED9EFF31182CF
:10D9E0004FF0800181F31188019265B92A461544F0
:10D9F00004EBC5040C9A019BE26283F311880020BA
:10DA000003B0BDE8F08F691C6A0001EB4101C90059
:10DA1000501903EBC00003EB010E5F50002383623B
:10DA2000CEF80480C0F820904362E0E7154BDFF8A1
:10DA300060C0DFF860B0A6624FF0100E4FF4806A4D
:10DA400002226662A361A3640F49A665C4F84CC0B4
:10DA5000C4F850E0E01DE662E6656665C4F81CB0F7
:10DA6000C4F820A02261626108F0F1FF2046074956
:10DA700008F0EDFF2023A371ACE74FF0FF30BFE7C4
:10DA8000D8410020A86A0200B46A0200B86A020005
:10DA900038250020482500202DE9F04F2B4C267812
:10DAA00083B005460F46904699462EB361692748D4
:10DAB000A94248D9EFF311864FF0800181F3118814
:10DAC000019665B92E46354404EBC5040C9A019BBA
:10DAD000E26583F31188002003B0BDE8F08F6E008B
:10DAE000711900EBC10100238B658F64C1F84C8074
:10DAF000C1F850904B65E6E7154BDFF860C0DFF8E2
:10DB000060B0A6624FF0100E4FF4806A0222666287
:10DB1000A361A3640F49A665C4F84CC0C4F850E0E3
:10DB2000E01DE662E6656665C4F81CB0C4F820A096
:10DB30002261626108F08BFF2046074908F087FFE9
:10DB40002023A371B2E74FF0FF30C5E7D841002092
:10DB5000A86A0200B46A0200B86A020038250020F0
:10DB6000482500202DE9F84F1746B9428846064659
:10DB70001D46DDF828B00B9AC0F0B4800B464FF07C
:10DB8000010AB3FBF7F39F420AF1010AF9D9AA454A
:10DB900038BFAA4612F0010902D1BBF1000F6AD1C9
:10DBA000F168002960DBB268012402E0013D07FB57
:10DBB00004F4012DFAD8B8FBF4F39F42F7D9504D85
:10DBC0009C4606E0002921DBB4FBF7F4F4B1B8FB76
:10DBD000F4FC706815F80CE0531C834204FB1C88AD
:10DBE00008D8316801F802E0F1687068B36001316B
:10DBF0001A46F1608242E5D130693168FFF7E0FDF5
:10DC0000B268904232D04FF0FF33F360B9F1000FA9
:10DC10002AD0BBF1000F63D0D3456BD92025002457
:10DC20005F4605E0F368002B68DBEFB157451BD971
:10DC30007368511C994207F1FF3707D833689D5428
:10DC4000F2687368B160501CF0600A469A42E9D1EC
:10DC500030693168FFF7B4FDB368984238D04FF0AF
:10DC6000FF33F360BDE8F88FBDE8F88F0023F1685B
:10DC7000B3601A46A6E793072DD42024D3458FD945
:10DC8000B268CDF828B01346A3460A9C05E0F168B7
:10DC9000002931DB4CB354452AD97268591C914292
:10DCA00004F1FF3408D8326802F803B0F3687268F0
:10DCB000B160581CF0600B469A42E8D13069316877
:10DCC000FFF77EFDB3689842C9D10023B360DEE759
:10DCD000B4600022A6E7002D14BF20243024CDE735
:10DCE000BDE8F88F4FF0010A51E71A46A3465BE7FB
:10DCF000A34658E7BDE8F88FBDE8F88FBDE8F88F78
:10DD0000C06A02002DE9F04F9DB000230446039045
:10DD10004025184609930A939B46DFF8A0A40B946C
:10DD20000CAB0C4691460793089514F8013B002B69
:10DD30005BD0252B63D10026254614F8011BA1F1E9
:10DD400023030D2B14D8DFE803F010131313131360
:10DD500013130D130A13130746F00206ECE746F0FF
:10DD60000106E9E746F00406E6E746F00806E3E7C1
:10DD7000A1F13003092B98BF002400F2A18004EB2D
:10DD8000840401EB440415F8011FA1F13003092BB1
:10DD9000A4F13004F3D92E296AD0002701E015F848
:10DDA000011B01F0FB03682BF9D0642900F0E1802E
:10DDB00044D9732900F0978070D9752940F082808A
:10DDC000D9F800301A1DC9F800201968009407A876
:10DDD0003B4601960A22FFF7C5FE0A986C1C0028F4
:10DDE00025DB14F8013B002BA3D100281FDD099A85
:10DDF000002A40F0488110441DB0BDE8F08F099919
:10DE0000089A4D1C954215D8079A53540A98089AB7
:10DE10000995013095420A90E1D10B980799FFF7D7
:10DE2000CFFC099B984200F02A814FF0FF301DB0D3
:10DE3000BDE8F08F8A427FF478AFEEE7582943D0EF
:10DE400063297CD02529C9D1099C089B621C9A4270
:10DE500040F2088122469A42C0D10B980799FFF7F9
:10DE6000AFFC099B984266D10A98CDF824B0B5E77B
:10DE70006978A1F13003092B05F101054FF0000786
:10DE80008FD807EB870701EB470715F8011FA1F1B2
:10DE90003003092BA7F13007F3D982E770299DD110
:10DEA000D9F800301A1DC9F800201968CDF804B05F
:10DEB000082307A800931022FFF754FE0A988DE765
:10DEC000002468E7782989D1D9F800301A1DC9F8EB
:10DED00000201968009407A83B4601961022FFF71E
:10DEE00041FE0A987AE7D9F800301A1DC9F80020D7
:10DEF0001E680BE00798C1540A98089B09920130EC
:10DF00009A420A900FD00028FFF668AF16F8011B5E
:10DF100000293FF463AF099B089C5A1CA242E9D92F
:10DF2000A342F3D11A460B980799FFF749FC099BC6
:10DF3000984200F08B804FF0FF300A904EE7D9F8FE
:10DF400000400999089B221DC9F800204A1C9A42EA
:10DF500024687FD90A469A427FF440AF0B9807990C
:10DF6000FFF72EFC099B9842E5D1CDF824B00A9822
:10DF700034E7D9F800301A1DC9F800201B6883EA7D
:10DF8000E372A2EBE372092A4FF0010808DD8AFB75
:10DF900002E1D217C2EBA102092A08F10108F6DC5E
:10DFA000B84538BFB84624B1002B01DB710700D556
:10DFB000013CB2075ED4F10736D4002C34D044457E
:10DFC00032D90596099A46464FF0200C98460346EA
:10DFD00005E0002BC0F2EC8014B3B44220D90899BC
:10DFE000501C884204F1FF3408D8079901F802C098
:10DFF0000A9A08990990531C0A9302468A42E8D16A
:10E000000B980799CDF810C0FFF7DAFB099ADDF8F5
:10E0100010C090428FD10A9BCDF824B00022D8E7DF
:10E0200018464346B046059E002B34DB72074AD49F
:10E0300006F00302022A5ED0194607A88DE85000B8
:10E040003B460A22FFF78EFD0A98C7E60A98CDF8EC
:10E0500024B058E7079B5C540A98099201300A9053
:10E06000089B78E7079B19550A98099201300A9096
:10E07000089BF0E6002FD7D0F107D5D49DE70A988A
:10E08000CDF824B0ABE603980CA9FFF799FB0A98EA
:10E09000099A1044B0E60999089A01F1010E9645D3
:10E0A000C3F100036AD99142C2D10B980799049336
:10E0B000FFF786FB099A049B90427FF43CAFCDF8B2
:10E0C00024B00A9810E00999089A01F1010E9645CA
:10E0D00043D8079A2B2050540A98089ACDF824E088
:10E0E000013096450A903BD00028FFF677AE06F047
:10E0F0000302022AA0D1002F9ED1002C4DD0A045B2
:10E100009AD2CDF81090099A4FF0300C994605E05C
:10E1100000284FDB002C3DD0444545D90899531CBD
:10E120008B4204F1FF3408D8079901F802C00A981D
:10E130000899099301301A460A908A42E8D10B984F
:10E140000799CDF814C0FFF73BFB099ADDF814C01E
:10E15000904224D0DDF81090EDE691427FF468AF54
:10E160000B9807990493FFF72BFB099A049B9042A5
:10E170007FF4E1AE0A98CDF824B0B5E7079A2D20D8
:10E1800050540A98089ACDF824E0013096450A9038
:10E19000AAD18AE74B46DDF8109000244CE70A9894
:10E1A000CDF824B00022B3E74B46DDF8109043E7EA
:10E1B000184613E6DDF8109010E600BF6766666645
:10E1C00038B5430704461CBF20F00704083400F0AC
:10E1D0007DFF0E4B1D689DB10D4A136840F6F77127
:10E1E0001C448C4207D8A34205D21D44146001F0A0
:10E1F00017F8284638BD002501F012F8284638BD2A
:10E20000044D25F007051D60E6E700BF4C390020EE
:10E210004829002054290020704700BF00F108035E
:10E220004FF0FF310022816080E80C00C360036181
:10E23000704700BF00230361704700BF43684B6015
:10E240009A688A609A68516099600861036801332E
:10E250000360704730B40D686B1C11D000F10802E8
:10E2600000E01A4653681C68A542FAD24B609960D8
:10E270008A605160086103680133036030BC7047F5
:10E2800002695368F2E700BF4268816803699160E0
:10E290008268416851605A68824204BF82685A604D
:10E2A000002202611868013818607047074800684A
:10E2B00080F3088862B661B6BFF34F8FBFF36F8FEC
:10E2C0004FF4F07080F3118800DF00BF00C0010040
:10E2D000064B19680868B0E8F04F80F30988BFF36F
:10E2E0006F8F4FF0000080F311887047CC39002009
:10E2F000EFF30980BFF36F8F144B1A681EF0100FF5
:10E3000008BF20ED108A20E9F04F10604DF8043D61
:10E310004FF0200080F31188BFF34F8FBFF36F8F52
:10E3200001F0BEF84FF0000080F3118808BC1968B6
:10E330000868B0E8F04F1EF0100F08BFB0EC108A6C
:10E3400080F30988BFF36F8F704700BFCC3900207E
:10E35000202383F31188FEE730B46FF002034FF0FF
:10E360008075074C40F8081C40F8202C40F8045CED
:10E3700040F80C4C40F8243C30BC4438704700BF97
:10E3800051E301000F4C08B5E02384F8223000F07F
:10E3900071F80D4B0D4A00211960D4F8883043F410
:10E3A0007003C4F88830536843F0404353602369D6
:10E3B00043F010032361FFF779FF202383F31188D3
:10E3C000FEE700BF00ED00E05039002030EF00E034
:10E3D000202383F31188024A1368013313607047C6
:10E3E00050390020034A1368013B13600BB983F3D3
:10E3F000118870475039002048DF704700B519492F
:10E40000194B00220A6083B00968009100991A60D4
:10E410001B680193019BEFF31183202383F3118881
:10E4200000F062FE114BD3F80435181A30F07F402B
:10E4300009D002280DD800F065FE20B10C4B4FF03A
:10E4400080525A6040BF002383F3118803B05DF807
:10E4500004FB013800F04EFE00F054FE0028EDD120
:10E46000F1E700BF001101404011014000100140E0
:10E4700000ED00E070B5002002F09AFF084D094B56
:10E48000094901222026E0244FF40030C3F8086532
:10E49000C3F804232A601A6081F81143086070BD34
:10E4A000081001400010014000E100E030B51C4CB4
:10E4B000844283B028BF0446202383F31188194A7D
:10E4C00019490123C2F80833D2F80435234423F054
:10E4D0007F430025C2F840350D600B6801934FF46F
:10E4E00080330199C2F8043301F020F968B17CB996
:10E4F000002383F311880B4B4FF480310122C3F8C2
:10E500000813C3F8042303B030BD80F31188F2E789
:10E51000BFF34F8F85F31188FFF76EFFE8E700BF69
:10E52000FDFFFF00001001404011014070B506469C
:10E530000D4651B300FB01F04D30FFF741FE04469C
:10E5400000F14C0340B32360E6632564FFF740FF0E
:10E55000226CE36B2168A16003FB02F39A1A0A4460
:10E560000B4400204FF0FF31A063E2606164636000
:10E5700004F11000A164FFF751FE04F12400FFF73D
:10E580004DFEFFF72FFF204670BD4C20FFF718FE11
:10E59000044603460028D6D10024F4E72DE9F047CD
:10E5A000044684B01D4601928846FFF711FFA26B16
:10E5B000E36BA64F4FF000099A424E4670D3022DEE
:10E5C00000F0EF800198002800F04281B9F1000FBF
:10E5D0007AD0FFF707FF00F079FDFFF7F9FE636CD3
:10E5E000013308BF6664A36C013308BFA664FFF75C
:10E5F000F9FE02A801A901F063F8002840F0E280CA
:10E60000FFF7E6FEA36BE26B9A4261D0FFF7EAFEEA
:10E61000FFF7DEFEA36C002B14DD636A93B104F1F7
:10E62000240907E0A36C013BA364A36C002B09DD64
:10E63000636A3BB1484600F0E9FF0028F2D001F0E0
:10E640006FF8EFE74FF0FF33A364FFF7CBFEFFF760
:10E65000BFFE636C002B14DD236993B104F1100934
:10E6600007E0636C013B6364636C002B09DD236985
:10E670003BB1484600F0CAFF0028F2D001F050F844
:10E68000EFE74FF0FF336364FFF7ACFE00F0C8FD27
:10E69000FFF79EFEA26BE36B9A424FF001098ED208
:10E6A000226C002A63D12568002D00F0F780A36B4F
:10E6B000626A0133A363002A40F0DF80FFF792FE15
:10E6C000012004B0BDE8F08702A800F0EDFF80E76C
:10E6D00004F11009FFF786FE4846019900F00CFF8F
:10E6E000FFF776FEA36C002B14DD636A93B104F18F
:10E6F000240A07E0A36C013BA364A36C002B09DD93
:10E70000636A3BB1504600F081FF0028F2D001F06F
:10E7100007F8EFE74FF0FF33A364FFF763FEFFF75F
:10E7200057FE636C002B06DC0FE0636C013B6364F7
:10E73000636C002B09DD23693BB1484600F066FF9E
:10E740000028F2D000F0ECFFEFE74FF0FF336364F6
:10E75000FFF748FE00F064FD002899D14FF0805388
:10E760007B6040BFBFF34F8FBFF36F8F90E7414691
:10E77000002D74D0E06808F05FF9236CE26821682E
:10E780005B421A448A42E26002D262681344E36048
:10E79000022D8CD1A36B002B89D0A36B013BA3630B
:10E7A00085E7226C002A3FF47EAF4146E06808F01E
:10E7B00043F9236CE26821685B421A448A42E260B2
:10E7C000E3D3E7E7FFF704FEA36C002B14DD636AD5
:10E7D00093B104F1240507E0A36C013BA364A36C8F
:10E7E000002B09DD636A3BB1284600F00FFF0028CB
:10E7F000F2D000F095FFEFE74FF0FF33A364FFF78F
:10E80000F1FDFFF7E5FD636C002B14DD236993B187
:10E8100004F1100507E0636C013B6364636C002B3B
:10E8200009DD23693BB1284600F0F0FE0028F2D054
:10E8300000F076FFEFE74FF0FF336364FFF7D2FDA0
:10E8400000F0EEFC002004B0BDE8F08700ED00E031
:10E850000090FFF7C7FD009804B0BDE8F087A068FE
:10E8600008F0EAF8A168236C62680B449342A36045
:10E87000FFF41DAF2368A36019E704F1240000F042
:10E88000C5FE01287FF41AAF0B4B4FF080525A603F
:10E8900040BFBFF34F8FBFF36F8F0FE7606800F08B
:10E8A000B3FFA36B626A65600133A363002AE4D1FE
:10E8B0000028E9D102E700BF00ED00E0F8B504460A
:10E8C00017461D46EFF31186202383F31188826BD0
:10E8D000C36B9A4205D3022D2DD0002086F31188F8
:10E8E000F8BD026C7AB92568002D4ED0A36B0133B8
:10E8F000A363A36C01333AD0A36C0133A36401205A
:10E9000086F31188F8BD2DB3C06808F095F8236C24
:10E91000E26821685B421A448A42E26002D262687D
:10E920001344E360022DE1D1A36B002BDED0A36B77
:10E93000013BA363DAE7026C002AD4D0C06808F078
:10E940007BF8236CE26821685B421A448A42E260E9
:10E95000E5D3E9E7806808F06FF8A168236C626886
:10E960000B449342A360C1D32368A360BEE7636AEC
:10E97000002BC4D004F1240000F048FE0028BED0D3
:10E98000002FBCD001203860A8E7606800F03CFF91
:10E990006560ABE72DE9F047044684B09A468846A7
:10E9A0000192FFF715FDA36BA34E00273D46002BF8
:10E9B0007AD10198002800F0F380002F00F0DC806D
:10E9C000FFF710FD00F082FBFFF702FD636C0133DF
:10E9D00008BF6564A36C013308BFA564FFF702FD9F
:10E9E00002A801A900F06CFE002840F0E080FFF7CB
:10E9F000EFFCA36B002B40F08480FFF7F3FC23684F
:10EA0000002B00F0C58004F124094846019900F06C
:10EA100073FDFFF7DDFCA36C002B06DC0FE0A36C9D
:10EA2000013BA364A36C002B09DD636A3BB148463C
:10EA300000F0ECFD0028F2D000F072FEEFE74FF09E
:10EA4000FF33A364FFF7CEFCFFF7C2FC636C002B1F
:10EA500014DD236993B104F1100907E0636C013BF5
:10EA60006364636C002B09DD23693BB1484600F009
:10EA7000CDFD0028F2D000F053FEEFE74FF0FF335A
:10EA80006364FFF7AFFC00F0CBFB38B94FF0805365
:10EA9000736040BFBFF34F8FBFF36F8FFFF798FCDA
:10EAA000A36B0127002B84D0226CE5684AB1636810
:10EAB000A9189942E16024BF2168E160404607F04F
:10EAC000BBFFBAF1000F40F0B980A36B2268013B95
:10EAD000A363002A00F0C3802369002B00F0B180FB
:10EAE00004F1100000F092FD012840F0AA80524B82
:10EAF0004FF080525A6040BFBFF34F8FBFF36F8F0C
:10EB00009FE0FFF76FFCFFF763FCA36C002B14DDA5
:10EB1000636A93B104F1240907E0A36C013BA36489
:10EB2000A36C002B09DD636A3BB1484600F06EFD23
:10EB30000028F2D000F0F4FDEFE74FF0FF33A364BC
:10EB4000FFF750FCFFF744FC636C002B18DD2369D2
:10EB5000B3B104F1100907E0636C013B6364636CBB
:10EB6000002B0DDD23695BB1484600F04FFD002806
:10EB7000F2D000F0D5FDEFE702A800F095FD1FE709
:10EB80004FF0FF336364FFF72DFC00F049FB85E78E
:10EB9000FFF71EFC606800F0E9FDFFF723FC32E799
:10EBA0000090FFF71FFC009804B0BDE8F087FFF766
:10EBB0000FFCA36C002B14DD636A93B104F12405F0
:10EBC00007E0A36C013BA364A36C002B09DD636A1F
:10EBD0003BB1284600F01AFD0028F2D000F0A0FD5D
:10EBE000EFE74FF0FF33A364FFF7FCFBFFF7F0FB09
:10EBF000636C002B14DD236993B104F1100507E069
:10EC0000636C013B6364636C002B09DD23693BB1DA
:10EC1000284600F0FBFC0028F2D000F081FDEFE771
:10EC20004FF0FF336364FFF7DDFB00F0F9FA0020DB
:10EC300004B0BDE8F08700BF00ED00E0636AE56066
:10EC40002BB9FFF7CFFB012004B0BDE8F08704F13A
:10EC5000240000F0DBFC00287FF449AFF1E700F06E
:10EC600015FE606038E700BF10B4074B1A682AB180
:10EC70009A6812B15DF8044B7047012203EBC2049D
:10EC800043F832106060F5E75042002038B5044682
:10EC90000D46FFF79DFB636C013304BF00236364E3
:10ECA000A36C013304BF0023A364FFF79BFBA36B9A
:10ECB00023B9294604F1240000F068FCFFF788FB23
:10ECC000A36C002B14DD636A93B104F1240507E003
:10ECD000A36C013BA364A36C002B09DD636A3BB109
:10ECE000284600F093FC0028F2D000F019FDEFE771
:10ECF0004FF0FF33A364FFF775FBFFF769FB636C0D
:10ED0000002B14DD236993B104F1100507E0636C57
:10ED1000013B6364636C002B09DD23693BB128462A
:10ED200000F074FC0028F2D000F0FAFCEFE74FF09E
:10ED3000FF336364BDE83840FFF754BB2DE9F84F5B
:10ED40000C9C0B9E81468A46154698462746002C09
:10ED500000F097804820FFF733FA0446002800F0BF
:10ED60009B80AD002A460763A5213846FDF7EAFBE4
:10ED70009AF80030226B84F83430043D9AF8003061
:10ED8000154425F0070553B19AF8013084F8353061
:10ED90009AF801301BB19AF8023084F836300A9B99
:10EDA000022B28BF0223002704F1040AE362A363B5
:10EDB000504684F83770E7639B46FFF73BFA04F14F
:10EDC0001800FFF737FACBF103032764A36124612E
:10EDD00084F844706462284649464246FFF7BCFA0C
:10EDE000206006B13460FFF7F3FA3F4A3F4D1368E5
:10EDF000013313602B68002B3CD0DFF82081D8F85A
:10EE000000306BB3DFF818E1394EE36ADEF800003A
:10EE10003768384A012404FA03FC03EB83034CEA05
:10EE2000000C514602EB83003A19CEF800C0326064
:10EE3000FFF704FAFFF7D6FAD8F80030BBB12B6819
:10EE40000A9ADB6A9A4212D92B4B4FF080525A60D1
:10EE500040BFBFF34F8FBFF36F8F2046BDE8F88FE1
:10EE60002B680A9ADB6A9A4228BF2C60CAE72046C0
:10EE7000BDE8F88F2C601368012B11D0DFF89C805F
:10EE8000C0E79000FFF79CF9074600287FF462AFC7
:10EE90004FF0FF30BDE8F88F3846FFF7BDF9F7E7D0
:10EEA0001448DFF88090154EDFF87080FFF7B6F950
:10EEB0001348FFF7B3F91348FFF7B0F94846FFF7D7
:10EEC000ADF93046FFF7AAF90F48FFF7A7F90F4849
:10EED000FFF7A4F90E48FFF7A1F90E4A0E4BC2F84E
:10EEE00000901E608EE700BF203A0020CC39002041
:10EEF000F03900208C39002000ED00E0083A0020B5
:10EF0000A0390020B4390020D03900206439002015
:10EF10007839002058390020EC3900205C39002075
:10EF2000243A0020F43900202DE9F843F020FFF7BF
:10EF300047F90546002875D04820FFF741F90446F7
:10EF4000002877D00563A5212846F022FDF7FAFABC
:10EF5000206B4C4F0025492144224C2304F1040826
:10EF600084F8341084F8352084F8363000F1EC064B
:10EF700084F837504046E562A563E563FFF75AF928
:10EF800004F11800FFF756F926F0070603232A4676
:10EF90002564A3613C4984F844503046246164628E
:10EFA000FFF7DAF9394B20601C60FFF711FA384A95
:10EFB0001368013313603B68002B35D0354E33683E
:10EFC0001BB93B68DB6A03B93C60DFF8F4C0DFF8CB
:10EFD000F4E0E36ADCF80050DEF800202E4801245B
:10EFE0009C4003EB830300EB8300013241462C433A
:10EFF000CCF80040CEF80020FFF720F9FFF7F2F937
:10F00000336803B13B6800F04DFC01280AD120238E
:10F0100083F31188214B306000221A60BDE8F84369
:10F02000FFF7B0B9BDE8F8833C601368012B06D048
:10F03000184ECAE72846BDE8F843FFF7EDB8164872
:10F04000DFF88490164D134EFFF7E8F81548FFF7E8
:10F05000E5F81548FFF7E2F84846FFF7DFF82846DD
:10F06000FFF7DCF81148FFF7D9F81148FFF7D6F899
:10F070001048FFF7D3F8104A104BC2F800901D60FB
:10F08000A3E700BFCC390020B5F30100E43900202C
:10F09000203A00205C3900208C390020E83900201B
:10F0A000083A0020A0390020B4390020D0390020CF
:10F0B000643900207839002058390020EC390020CC
:10F0C000243A0020F0390020F4390020024A136865
:10F0D00001331360704700BFC8390020014B186826
:10F0E000704700BFE8390020014B1868704700BF27
:10F0F000E8390020024A136818441060704700BFC6
:10F10000E83900202DE9F04F3A4B1B6883B0002B03
:10F1100043D1394B1A6801321A601F68002F4AD058
:10F12000364B01931B689F423BD3DFF8E480344E9B
:10F13000DFF8E890C246002525E0DAF80030DB6809
:10F14000DC68636804F1040B9F42584622D3FFF742
:10F150009BF8A36A04F118000BB1FFF795F8E06A79
:10F1600033680122824000EB80001343594609EBCB
:10F1700080003360FFF762F8224BE26A1B68DB6AAB
:10F180009A4228BF0125D8F800301B68002BD4D143
:10F190004FF0FF33019A136004E01B4A13680133F8
:10F1A00013600025194B1B68002B18BF012528464A
:10F1B00003B0BDE8F08F164B164A1868164914685C
:10F1C0001C6010600A6801320A601A6812683AB955
:10F1D0000A4B01931A464FF0FF3313601346A1E721
:10F1E0001B68064ADB680192DB685B6813601346A4
:10F1F00098E700BFC8390020E839002048200020E7
:10F20000243A0020CC3900201C3A0020283A002063
:10F2100058390020EC390020543900208C39002066
:10F220002DE9F84FFFF7D4F8314B1A68013A1A600C
:10F230001B68002B47D12F4B1B68002B43D0DFF8F6
:10F24000C8B02D4FDFF8C490DFF8C480DA4620E064
:10F25000DAF80C30DC68251D04F11800FFF714F80B
:10F260002846FFF711F8E06A3B6806FA00FE00EB5B
:10F2700080004EEA0303294609EB80003B60FEF75D
:10F28000DDFFD8F80030E16ADB6A994224BF1B4BEE
:10F290001E60DBF800300126002BD9D1184C236802
:10F2A0006BB123685BB10125FFF72CFF08B1134B4D
:10F2B0001D602368013B23602368002BF4D10F4BB2
:10F2C0001C68012C05D00024FFF78CF82046BDE80F
:10F2D000F88F0C4B4FF080525A6040BFBFF34F8FF6
:10F2E000BFF36F8FFFF77EF82046BDE8F88F00BFB1
:10F2F000C8390020203A0020243A0020283A002073
:10F300001C3A002000ED00E0D03900208C390020AC
:10F31000CC39002070B548B91E4B4FF080525A606E
:10F3200040BFBFF34F8FBFF36F8F70BD1A491B4DA6
:10F330000A681B4E01320A6003462C6830680430AC
:10F340001C44FEF7A1FF40B933681649D86A0A6821
:10F350000123834022EA03030B6032682B68546068
:10F360009C420F4A0FD3104B186811680431FEF706
:10F3700071FF0E4B1A68944238BF1C60FFF750FFB4
:10F380000028C9D070BD0A4B186811680431FEF717
:10F3900061FFF3E700ED00E0C8390020E839002004
:10F3A000CC390020243A0020583900204820002081
:10F3B000EC3900202DE9F04B304E314D314CDFF867
:10F3C000D880DFF8D890B34607E023683768013368
:10F3D0002360FFF725FF002F34D12B68002BF4D1D9
:10F3E000D9F80030012B08D9274B4FF080525A60D2
:10F3F00040BFBFF34F8FBFF36F8F04F04DF8234B27
:10F40000224A1B68DB6A002BE7D1D9F80030012BB8
:10F41000E3D81F4B1F491B6809681D4F1D485B1A25
:10F42000012BDAD92368013323601368DB6A33B90F
:10F430003B680068181A012801D9FFF737F8FFF771
:10F44000EFFECAE7FEF7C4FFDBF80C30DF68381DBB
:10F45000FEF71AFFD8F80030094A013BC8F800301F
:10F46000074B1B68013B1360FEF7BCFF386BFEF7D0
:10F47000D3FE3846FEF7D0FEAFE700BF6439002068
:10F4800060390020C839002000ED00E0CC390020B0
:10F4900048200020E8390020203A00208C39002044
:10F4A000104B1B68CBB91049104A0B601368B3FAB4
:10F4B00083F3C3F11F030E4803EB83039B00C118C2
:10F4C00008334A6852684A6003449A4204BF52684B
:10F4D0004A60084BD2681A607047034B01221A60D9
:10F4E000704700BFC8390020283A0020243A002085
:10F4F0008C390020CC39002038B51D4D2B680C46C6
:10F5000003F11801FEF7A6FE28680430FEF7BCFEE2
:10F5100040B92B681749D86A0A680123834022EA58
:10F5200003030B60631C1CD0134A1149136828683D
:10F5300012681C44944244600BD3104B186809684D
:10F540000431FEF787FE0E4B1A68944238BF1C60E8
:10F5500038BD0C4B18680968BDE838400431FEF727
:10F5600079BE296808480431BDE83840FEF766BE18
:10F57000CC390020243A0020E839002058390020F6
:10F5800048200020EC3900207839002038B5194D8A
:10F590002B680C4603F11801FEF750FE2868043072
:10F5A000FEF772FE40B92B681349D86A0A68012336
:10F5B000834022EA03030B60104A0E49136828684F
:10F5C00012681C44944244600BD30D4B18680968C0
:10F5D0000431FEF73FFE0B4B1A68944238BF1C60A3
:10F5E00038BD094B18680968BDE838400431FEF79A
:10F5F00031BE00BFCC390020243A0020E839002079
:10F600005839002048200020EC390020F8B5C368A4
:10F61000DC6804F118052846FEF736FE1A4B1B6815
:10F6200033BB271D194E3846FEF72EFEE36A3568B8
:10F63000174801229A4003EB83032A43394600EB23
:10F6400083003260FEF7FAFD124BE26A1B68DB6A48
:10F650009A4282BF104B01201860104B1A68126842
:10F6600098BF00204AB90E4B4FF0FF321A60F8BD28
:10F6700029460C48FEF7E2FDE6E71A68084BD26817
:10F68000D26852681A60F8BDC8390020243A0020B8
:10F690008C390020CC390020283A0020583900202D
:10F6A00048200020D0390020034A044B12681B6810
:10F6B00080E80C00704700BF54390020E839002072
:10F6C000F8B50D460446FEF783FE2B6812495A1C16
:10F6D00008681BD0114E276832689742626801D0D3
:10F6E00090420ED2871ABB420BD91B1A13443068C2
:10F6F0000A682B6084E805000025FEF773FE2846A3
:10F70000F8BD0125FEF76EFE2846F8BD0025FEF780
:10F7100069FE2846F8BD00BFE839002054390020B2
:10F72000014B01221A607047283A0020054B1B68E4
:10F730002BB9054B1868B0FA80F0400970470020DB
:10F74000704700BFD0390020283A0020054B1B68C5
:10F7500033B1054B1B68002B0CBF02200020704703
:10F76000012070475C390020C8390020002842D0B1
:10F770002DE9F041214CC36A2268D26A934212D229
:10F780008269002A04DB2268D26AC2F10302826124
:10F790001B4D426903EB830305EB83039A4204D0BC
:10F7A0002368DB6AC362BDE8F08100F10408074604
:10F7B0004046FEF769FDF8B9FB6A124E03EB83027F
:10F7C00055F8222032B93268012101FA03F322EA06
:10F7D0000303336023683268D86AF86201238340E8
:10F7E000134300EB80003360414605EB8000BDE829
:10F7F000F041FEF723BD7047024EEBE7CC39002005
:10F800008C390020243A0020002838D0F8B5C36B8A
:10F81000C16A826B013B9142C36300D00BB10020EF
:10F82000F8BD071D04463846FEF72EFD78B9E36A99
:10F830001448154E03EB830250F822204AB932686F
:10F84000012101FA03F322EA0303336001E00D48CA
:10F850000D4EA36B3268E362012505FA03FCC3F188
:10F86000030E03EB83034CEA020200EB83003946EC
:10F87000C4F818E03260FEF7E1FC2846F8BD00202D
:10F88000704700BF8C390020243A0020044B1A68CE
:10F890001AB11968CA6B0132CA631868704700BF91
:10F8A000CC390020F0B5184C85B0FEF791FD2568E5
:10F8B0008DB1FEF797FD206858B10223134A0093DB
:10F8C0000023019202930393114812495022FFF73B
:10F8D00035FA05B0F0BD104F104E3846FEF79EFCCD
:10F8E0003046FEF79BFC0E4A0E4B176020202A463E
:10F8F00010211E60FEF71AFE20600028D9D00A49A8
:10F90000FFF7B2F9D5E700BF5C3A0020643A002067
:10F910002DFA0100D86A0200303A0020443A002053
:10F920002C3A0020603A0020D06A02002DE9F04F06
:10F9300083B0F9B1064628200D4698461746FEF7D3
:10F940003FFC0446B0B1DFF88090FEF741FDD9F8E6
:10F950000020A2B1FEF746FD0C9B2660201DA5618C
:10F96000E761C4F820806362FEF764FC204603B0C0
:10F97000BDE8F08F0024204603B0BDE8F08FDFF82B
:10F980004CB0DFF84CA001925846FEF747FC5046B9
:10F99000FEF744FC09490A4BC1F800B0019AC3F8CC
:10F9A00000A020201021FEF7C1FDC9F800000028AA
:10F9B000D0D00449FFF758F9CCE700BF2C3A00201B
:10F9C000603A0020D06A02005C3A0020303A002001
:10F9D000443A002030B5144D2C6885B004B3052995
:10F9E0008DE8060002900BDCFFF7B0FE02280FD076
:10F9F0000022286813466946FEF7D0FD05B030BDE9
:10FA00001A46204669460023FEF758FF05B030BD70
:10FA10002868089A69460023FEF7C0FD05B030BD8E
:10FA2000204605B030BD00BF5C3A00202DE9F04F04
:10FA3000AB4DAC4CDFF8B0828BB02B681E68002E4B
:10FA40006ED0DB681E68FFF741FBFFF747FBD8F875
:10FA50000030A54A834207466ED88642106040F2C5
:10FA6000A480F11B2068FFF711F9FFF7D9FB40B91B
:10FA70009E4B4FF080525A6040BFBFF34F8FBFF391
:10FA80006F8F00221346206802A9FEF783FF00282B
:10FA9000D3D0029B002B3BDB049E736913B1301D56
:10FAA000FEF7F2FBFFF71AFBD8F8003098428146C8
:10FAB00023D3029AC8F80090092AE2D80123934080
:10FAC00013F4047F40F0D68013F0C70F40F0B680E7
:10FAD0009B06D6D53046FEF79FFBD2E7DB68DF6892
:10FAE000D3F800B007F1040A5046FEF7CDFB7B6A5D
:10FAF00038469847FB69012B4BD02B681A68002ABF
:10FB0000ECD17B4A764912680A60794A1360D0E7E3
:10FB1000039B049805999847029B002BB1DBBBE738
:10FB2000FFF7D4FAFFF7DAFAD8F800306E4A8342CA
:10FB3000074601D8176094E74FF000090EE0DB6834
:10FB4000DE68D3F800B006F1040A5046FEF79CFBCD
:10FB5000736A30469847F369012B0ED02B681A68F8
:10FB6000002AECD1624A5E4912680A60604AC8F80D
:10FB700000701360FFF754FB83E7B3695B445B4598
:10FB8000514627D97360564B36611868FEF762FB01
:10FB9000E4E7BB695B445B4551462DD97B60504B24
:10FBA0003F611868FEF756FBA7E7FFF739FB4C4BA0
:10FBB0001B68DB68D3F80C9009F1040A5046FEF785
:10FBC00063FBD9F81C30012B29D0D9F824304846E2
:10FBD000984756E72368002BC0D0CDF81890CDF891
:10FBE0001CB00896FFF7B2FD3E4900221346086894
:10FBF00006A9FEF7D3FCB1E72368002B3FF47DAFE5
:10FC000000230693CDF81CB00897FFF79FFD3549F8
:10FC100000221346086806A9FEF7C0FC6DE7D9F874
:10FC20001830C9F810909A19BA42C9F8042032D98C
:10FC30002B4B51461868FEF70DFBC6E7039BB169D5
:10FC40003661CA184A4572603AD8C3EB0903994233
:10FC50001BD8736A30469847F369012B7FF411AFC4
:10FC6000B269039B00211A44009130460B46FFF70E
:10FC7000B1FE06E7039B366109EB03024A45B36117
:10FC8000726021D8002B3FF4FCAE194B311D18686F
:10FC9000FEF7E0FAF5E6BF1BBB421AD82368002B3B
:10FCA00093D000270796CDF820900697FFF74EFDDA
:10FCB0000C493A463B46086806A9FEF76FFC84E704
:10FCC0004B4501D99342C4D9311D2868FEF7C2FAC9
:10FCD000D7E6074B51461868FEF7BCFA75E700BF38
:10FCE0002C3A00205C3A0020583A002000ED00E059
:10FCF000603A002010B50446FEF76AFB64690034E0
:10FD000018BF0124FEF76EFB204610BD10B5044657
:10FD1000FEF75EFB246AFEF765FB204610BD00BFC0
:10FD2000002810B418DB00F1604303F5614349017A
:10FD3000C9B283F80013C3B24009800000F16040EB
:10FD400000F5614003F01F0201239340C0F88031A9
:10FD500003605DF8044B7047C3B2044A03F00F041C
:10FD600049012244C9B21176E6E700BFFCEC00E08D
:10FD700029DF704728DF704730B1112805D1114ABB
:10FD8000136843F008031360704770B502460E48CD
:10FD90000E49037809680E4E03EB830382B09B0083
:10FDA000C5180091EC686B69297904EB4404284676
:10FDB0000C3056F82440A047064B04221A7002B0BB
:10FDC00070BD00BF583B0020683A0020643B002013
:10FDD0003C3B00205D3B00202DE9F0475B4D5C4F34
:10FDE0002B785C4CDFF888A182B0032B50D8DFE879
:10FDF00003F0645F02522378DFF864914FF0805E75
:10FE000003EB8303DEF81000D9F8008004EB8303D2
:10FE100080B21A69B2FBF0F03860D988DEF8103091
:10FE2000013A0A449BB2B2FBF3F398424A4B08BF33
:10FE300028F001081B680CBF48F0020828F00308EE
:10FE4000C9F8008013B918F0020F75D0434A002199
:10FE50004FF0102311705B695A1C64D04FF0805230
:10FE6000106980B2B3FBF0F34FF08051013B0A6997
:10FE7000086992B202FB03F380B2B3FBF0F0FFF724
:10FE800079FF28B1112831D148F00803C9F80030B2
:10FE900002B0BDE8F0873868FFF76CFF0028F7D0A4
:10FEA000112823D12E4A136843F008031360EFE7AB
:10FEB00002B0BDE8F04700F017BC2A482A49627832
:10FEC000002303600B60002AE2D02278274902EB6E
:10FED000820204EB82021379D2880A60032B26D0B7
:10FEE000042B24D0012BD3D12B707EE72378DFF8AD
:10FEF0007C8003EB83039B0004EB030CE646DCF8F9
:10FF00000C20DCF814309CF80410D8F8006000963F
:10FF100002EB420C02465AF82CC00EF10C00E047EE
:10FF200004232B7061E74FF080535B699CE702B0BC
:10FF3000BDE8F04700F01EB8084B02221A70FFF728
:10FF400019FF02B0BDE8F047FFF716BF5D3B002088
:10FF5000703B0020683A00206C3B00205C3B002096
:10FF6000583B0020683B0020343B0020643B0020CD
:10FF70003C3B00202DE9F043504A51491378514E43
:10FF800003EB830302EB83034FF08057DD681A69AC
:10FF9000B3F806E01C89386905EB450301EB8303E0
:10FFA00081B2B3F808805889D3F80490B2FBF1FC11
:10FFB0000EEB040301FB1C214FF0000C00FB08902A
:10FFC0001344C6F800C009BB396989B28E4536D0E2
:10FFD00083425ED0032D32D03D69DFF8F4E0224445
:10FFE000ADB2B2FBF5F105FB11229208CEF800206C
:10FFF0003A6992B2B3FBF2F102FB113272BB324B9F
:020000022000DC
:1000000002221A70BDE8F043FFF7E6BE032D16D0BA
:100010003D69DFF8BCE02244ADB2B2FBF5F105FB6F
:1000200011229208CEF8002083423A69E7D092B2BA
:10003000B3FBF2F102FB1132002AE0D00EE04FF0E8
:10004000805322491B69204803249BB20470B2FBF1
:10005000F3F20A60BDE8F043FFF7BEBE4FF08054F4
:100060009BB22169226980B289B292B2B0FBF1F1F0
:10007000B3FBF2F291421CD02269206980B2B3FB3B
:10008000F0F100FB113392B29BB2D31A9B0833609C
:10009000B5E7002CD3D0032DD1D03B690C482244C6
:1000A0009BB2B2FBF3F103FB11239B0803603B6996
:1000B000A5E7C31A9B083360A1E700BF683A002098
:1000C0003C3B0020383B00205D3B0020703B002083
:1000D0006C3B00202DE9F843214CBDF820C0677827
:1000E0000A2F37D094F800E0DFF87C9026460EEB1C
:1000F0000704092CC8BF0A3C4FF0140808FB04642D
:1001000099F800506261207103C904F10C02E38088
:100110007B1C7370A4F808C082E80300104BE5B99B
:1001200008FB0E3E0F4A9EF80430BEF80610116020
:10013000032B0AD0042B08D0012B0ED189F80030F4
:10014000FFF74AFE2846BDE8F883FFF713FF28466D
:10015000BDE8F8830420BDE8F8830020BDE8F883FB
:10016000683A0020643B00205D3B0020F0B5294A3E
:10017000136813F0080583B00BD02748274900788F
:1001800051F8201023F00803136003B0BDE8F040DD
:100190000847234C207800EB800080002318197951
:1001A00004292ED0DA681F4F1F4E3F685B69009705
:1001B00002EB4202204456F822600C302A46B04737
:1001C0002378617803EB83020133DBB204EB820214
:1001D0000A2B4FF0020618BF2370144B157101F162
:1001E000FF31D580556115811561D6604FF0000251
:1001F000617008BF25701A7003B0BDE8F040FFF7CA
:10020000EBBD0A4B01221A7003B0BDE8F040FFF7C6
:10021000E3BD00BF583B00205C3B0020E06A0200C9
:10022000683A0020643B00203C3B00205D3B0020FE
:1002300070B54FF0102382B05B695A1C3FD04FF06D
:100240008052106980B2B3FBF0F34FF080521E4928
:1002500010690C6811691269013B80B289B200FB18
:1002600003F0C2F38D0204FB01F1FFF781FD30B111
:10027000112806D1154A136843F00803136002B031
:1002800070BD134C134A23781268009203EB83036A
:100290009B00E5182C46EA6829796B690E4E02EB43
:1002A0004205024604F10C0056F82540A0470B4BCE
:1002B00004221A7002B0BDE87040FFF78DBD4FF008
:1002C00080535B69C1E700BF703B0020583B0020B2
:1002D000683A0020643B00203C3B00205D3B00204E
:1002E00070B5244B4FF080511A6808694FF0102305
:1002F000013A5B6980B202FB00F05A1C14BF096925
:100300004B691D4A1CBF89B2B3FBF1F34FF080511A
:10031000013B0969126889B282B001FB03F1FFF762
:1003200027FD30B1112806D1144A136843F00803A1
:10033000136002B070BD124C124A2378126800920A
:1003400003EB83039B00E5182C46EA6829796B6967
:100350000D4E02EB4205024604F10C0056F8254012
:10036000A0470A4B04221A7002B0BDE87040FFF7A4
:1003700033BD00BF703B00206C3B0020583B002089
:10038000683A0020643B00203C3B00205D3B00209D
:1003900070B5224D2C68220782B015D4204AA307DD
:1003A000204B106848BF44F001044FF0020248BFE0
:1003B0002C601A70FFF7DEFC20B1112810D144F038
:1003C00008042C6002B070BD164A174B127853F81F
:1003D000223024F008042C6002B0BDE870401847B9
:1003E000124C134A23781268009203EB83039B009C
:1003F000E5182C46EA6829796B690E4E02EB420536
:10040000024604F10C0056F82540A0470A4B04228E
:100410001A7002B0BDE87040FFF7DEBC583B002008
:10042000703B00205C3B0020E06A0200683A00203C
:10043000643B00203C3B00205D3B002070B5294C14
:10044000237803EB830304EB83031A464FF08056B3
:1004500032F8081FD888956832694FF01023084495
:100460005B6992B22844B0FBF2F502FB15055A1CF9
:1004700014BF316973691C4A1CBF89B2B3FBF1F325
:100480004FF08051013B0969126889B282B001FBCB
:100490000351FFF76DFC30B1112806D1134A1368E0
:1004A00043F00803136002B070BD2378104A114E68
:1004B0001268009203EB83039B00E5182C46EA6860
:1004C00029796B6902EB4205024604F10C0056F8EB
:1004D0002540A047084B04221A7002B0BDE87040C6
:1004E000FFF77ABC683A0020383B0020583B0020D8
:1004F000643B00203C3B00205D3B002070B5164B68
:1005000082B01868FFF736FC30B1112806D1134AC3
:10051000136843F00803136002B070BD104C114A19
:1005200023781268009203EB83039B00E5182C46A6
:10053000EA6829796B690C4E02EB4205024604F128
:100540000C0056F82540A047084B04221A7002B050
:10055000BDE87040FFF740BC703B0020583B0020D6
:10056000683A0020643B00203C3B00205D3B0020BB
:1005700070B52D4D2D4A2C68210782B00AD512780E
:100580002B4B53F8223024F008042C6002B0BDE855
:100590007040184701214FF0102311705B695A1CFD
:1005A0003DD04FF08052106980B2B3FBF0F34FF0B2
:1005B0008052204910690E6811691269013B80B2AE
:1005C00089B200FB03F0C2F38D0206FB01F1FFF7D5
:1005D000CFFB20B1112804D144F008042C6002B0F4
:1005E00070BD154C154A23781268009203EB830303
:1005F0009B00E5182C46EA6829796B69104E02EBDE
:100600004205024604F10C0056F82540A0470D4B68
:1006100004221A7002B0BDE87040FFF7DDBB4FF056
:1006200080535B69C3E700BF583B00205C3B002060
:10063000E06A0200703B0020683A0020643B002022
:100640003C3B00205D3B002070B54FF0102382B092
:100650005B695A1C3AD04FF08052106980B2B3FBEC
:10066000F0F34FF08051013B0A69086992B202FB36
:1006700003F380B2B3FBF0F0FFF77CFB30B111283D
:1006800006D1144A136843F00803136002B070BD2A
:10069000114C124A23781268009203EB83039B00EB
:1006A000E5182C46EA6829796B690D4E02EB420584
:1006B000024604F10C0056F82540A047094B0422DD
:1006C0001A7002B0BDE87040FFF786BB4FF0805350
:1006D0005B69C6E7583B0020683A0020643B002075
:1006E0003C3B00205D3B0020F0B5414C2578AF003D
:1006F0007B194FF0805604EB83033069DA8880B2AF
:10070000824283B018D81E46596936F8080FB3687C
:1007100092081844FFF72CFB30B111282CD1354A30
:10072000136843F0080313603D4404EB8504324B27
:10073000E2881A6003B0F0BD1F46356937F808EF4C
:100740005969B8683669ABB2D21A70441044114482
:10075000C6F38D02FFF70CFB30B111282CD1254ACE
:10076000136843F0080313604FF08053224A1B695B
:100770009BB2136003B0F0BD2378204ADFF884C039
:100780001268009203EB83039B0004EB030E764692
:10079000DEF80C209EF80410DEF8143002EB420E56
:1007A000024606F10C005CF82E60B047144B0422A0
:1007B0001A70FFF711FBB7E72378104A114E126841
:1007C000009203EB83039B00E5182C46EA68297925
:1007D0006B6902EB4205024604F10C0056F8254015
:1007E000A047074B04221A70FFF7F6FABCE700BFD8
:1007F000683A0020583B0020343B0020643B002036
:100800005D3B00203C3B00202DE9F0436A4D2C6805
:1008100014F0080883B05BD1684E694B96F800C0AD
:100820001F684FEA8C0E0EEB0C0206EB82024FF0B3
:1008300080591369D1881089D9F81020013B0B44E5
:100840000344002F50D15F4A10684FF08052126964
:1008500092B2B3FBF2F398427FD375D0002F74D1DC
:10086000E6444FEA8E0E7644544C3179042900F068
:100870009F80F2685448554D00687369009002EB00
:10088000420204EB0E0055F822500C303A46A847BD
:100890002378617803EB83020133DBB204EB82023D
:1008A0000A2B4FF0020501F1FF3118BF2370484BAE
:1008B0001771D780576117811761D560617008BFC4
:1008C000277000221A7003B0BDE8F043FFF784BA26
:1008D000404A414B127853F8223024F008042C602F
:1008E00003B0BDE8F04318473649086892B2B3FB3D
:1008F000F2F28242A9D1394B3649C3F8008044F064
:1009000001024FF0102381F800802A6059694B1CC6
:100910004BD0D9F810309BB2B1FBF3F34FF08051BC
:100920005A1E0B6908699BB203FB02F380B2B3FB4A
:10093000F0F0FFF71FFA20B111281ED144F009048E
:100940002C6003B0BDE8F0833FB1224B03221A7044
:1009500003B0BDE8F043FFF771BD20491D4B0027F0
:1009600002220F601A70FFF705FA0028E9D011285B
:1009700003D144F008042C60E3E73378124A134DA6
:100980001268009203EB83039B00F4182646E2688A
:100990006369217902EB4204024655F8244006F1CE
:1009A0000C00A0470A4B04228CE7D9F81430B5E7B5
:1009B000074B012286E700BF583B0020683A002021
:1009C000383B0020703B0020643B00203C3B002073
:1009D0005D3B00205C3B0020E06A02006C3B002095
:1009E0002DE9F041894E3468230782B000F19680EA
:1009F0008749884A0B681268581C0860002A4DD144
:100A0000854F3B7803EB83039D0007EB050E0EF14A
:100A1000080C4FF08053DCF80820BEF80680BEF8C2
:100A200008101B69013A42440A449BB2B2FBF3F33B
:100A30009842C0F08280794B7CD0D3F80080B8F126
:100A4000000F00F0A68014F0010340F09A80744873
:100A50004FF0102244F001010370316053695A1CB9
:100A600000F0CC804FF08052106980B2B3FBF0F3FD
:100A70004FF08051013B0A69086992B202FB03F30F
:100A800080B2B3FBF0F0FFF775F920B1112863D104
:100A900044F00904346002B0BDE8F08160490420EC
:100AA00008704FF080554FF010212869496980B2D5
:100AB0004F1C08BF696903FB00F018BF2B694FF09A
:100AC00080551CBF9BB2B1FBF3F14B1E296989B263
:100AD00001FB03F1FFF74CF90028DCD0112835D0D9
:100AE0004D4C504A23781268009203EB83039B001D
:100AF000E5182C46EA684C4E29796B6902EB4205F1
:100B0000024604F10C0056F82540A047474B04224A
:100B10001A7002B0BDE8F041FFF75EB9404A444B9D
:100B2000127853F8223024F00804346002B0BDE893
:100B3000F04118471B68002B85D1394B02221A70EF
:100B4000FFF718F90028A6D0112805D144F00804B1
:100B5000346002B0BDE8F0813B78324A324D126811
:100B6000009203EB83039B00FC182746E26821797F
:100B7000636902EB4204024655F8244007F10C0079
:100B8000C3E7274B03221A7002B0BDE8F041FFF71C
:100B900055BC9EF80410042934D0DCF80420214808
:100BA000214C0068DEF81430009002EB4202781904
:100BB00054F822400C304246A0473B78797803EB4A
:100BC0008302013307EB8202DBB20A2B4FF00204EF
:100BD00001F1FF3182F80480A2F80680C2F8148087
:100BE000A2F80880C2F81080D46018BF3B707970FA
:100BF00008BF87F800800D4B002289E74FF0805333
:100C00005B6935E7094B012282E700BF583B0020B2
:100C1000703B00206C3B0020683A0020383B0020ED
:100C20005C3B0020643B00203C3B00205D3B0020FF
:100C3000E06A0200F0B52A4C2A4D20782B682A4E33
:100C40002A4F83B000EB80008000009323181846E1
:100C5000DA6819795B6902EB42020C3056F82260BF
:100C60000022B04723786178214E03EB83020133E1
:100C700004EB8202DBB200200A2B10611071D080DD
:100C80001081506101F1FF314FF0020E04BF20705E
:100C900003461848C2F80CE0C9B24FF00002617078
:100CA00018BF237002703A60326009B903B0F0BD1A
:100CB00003EB830304EB83042379E2882A60032B8C
:100CC00009D0042B07D0012BF0D1037003B0BDE88D
:100CD000F040FFF781B803B0BDE8F040FFF74AB934
:100CE000683A0020643B00203C3B0020683B002029
:100CF000343B00205D3B00202DE9F041674D2B780F
:100D000013F0FB0F82B01CD00228044613D0032836
:100D100017D163490A6810071FD5022B14D0032B83
:100D200001D0012B0DD122F008020A6002B0BDE80B
:100D3000F041FFF751B8022B06D0032B59D0012BFD
:100D400017D002B0BDE8F081564A574B127853F8DD
:100D5000223002B0BDE8F041184754490A68013218
:100D6000B2F57A7F0A6078D0022BDFD14D4A504B22
:100D7000ECE74B4A13681E0766D44E4F4E4A3B7849
:100D8000166803EB83039A00BB18D9888E1BB6B292
:100D9000DE80002E5CD1D868DFF824E11979D3F821
:100DA0001480DFF820C1DEF80030009300EB400E25
:100DB000B818434632460C305CF82EC0E0473B780A
:100DC000797803EB83020133DBB207EB82020A2B53
:100DD00001F1FF3118BF3B704FF000031671D68050
:100DE00056611681D4601661797008BF3E702B7011
:100DF0009CE72B4A13681C0726D42E4C2F4B2678D1
:100E000018684FEA860E0EEB060104EB81010130F3
:100E10000A6918604FF08053CF881B690989013A2D
:100E20003A440A449BB2B2FBF3F39842FFF47EAF1C
:100E30002ED0764404EB86042379042B25D002B00F
:100E4000BDE8F041FFF7F6BE23F0080313606DE73D
:100E500002B0BDE8F041FFF747BC1648184A0378D6
:100E60001268009203EB83039B00C418154EE268DE
:100E70006369217902EB420220460C3056F8224089
:100E80000D22A04704232B7050E701232B704DE760
:100E90000D4B1B68002BCCD148E700BF5D3B002009
:100EA000583B00205C3B0020F46A0200683B0020B5
:100EB000E06A0200683A0020343B0020703B0020CA
:100EC000643B00203C3B0020383B00204A4BDFF8CD
:100ED00044C1F0B5494C4A4F4A4E4B4DDFF838E11A
:100EE000002202214FF010201A705A701A71DA8015
:100EF0001A615A611A811A765A835A629A629A83DF
:100F000083F82C20DA859A63DA631A8683F8402006
:100F1000A3F84220DA641A65A3F8442083F8542029
:100F2000A3F856201A665A66A3F8582083F868205A
:100F3000D960196259639964D9652280A3F86A203F
:100F4000406919675A679A67A3F86C2083F87C2078
:100F5000A3F87E20C3F88410C3F88820C3F88C203F
:100F6000A3F8802083F89020A3F89220C3F898106B
:100F7000C3F89C20C3F8A020A3F8942083F8A420F1
:100F8000A3F8A620C3F8AC10C3F8B020C3F8B4206F
:100F9000A3F8A82083F8B820A3F8BA20C3F8C0109B
:100FA000C3F8C420C3F8C820A3F8BC20421C4FF0EB
:100FB00080534FF0805214BF1B695869126913495E
:100FC00018BF9BB292B218BFB0FBF3F0104B0338BE
:100FD00002FB00F2042400203870306028601860A2
:100FE00018815881D8609882D8820C60CCF8002093
:100FF000CEF80000F0BD00BF683A0020543B00204E
:101000005D3B0020683B0020343B0020583B002023
:101010003C3B0020603B0020703B0020354B1B68B0
:101020005B0701D40820704770B169B103685BB1F8
:101030002DE9F0414FF080548388226992B29342A7
:1010400004D90720BDE8F0810E2070470F2BF8D996
:10105000C288002AF5D04FF010254FF0805E6D69F0
:10106000254EB5F1FF3F14BF2469646937681CBF82
:10107000A4B2B5FBF4F4DEF81050013CADB203FBB2
:10108000027205FB04F4A242DBD813F00303D8D1AB
:101090001A4CB4F800C0BCF1020F28D00C224F60EB
:1010A000C1F800C002FB0CF2154D0168A950A91847
:1010B000B0F8068082884F600A81A1F80A80DEF8C5
:1010C0001050DEF81000DEF81010ADB208FB02522E
:1010D00089B20CF1010C80B2013A92FBF0F201FBF3
:1010E0000277A4F800C037601846BDE8F0810420FC
:1010F000BDE8F081583B0020603B0020543B0020BD
:101100003C3B0020134B1B685B0701D40820704751
:1011100028B122B10368012B03D9072070470E20A4
:10112000704770B403EB4304A4000B4D2E592C44BC
:101130004EB1466865892089646800FB016105FB42
:101140000040814202D3072070BC70471360516099
:101150000020F9E7583B00203C3B0020F0B51D4C37
:101160002468670783B002D4082003B0F0BD31B112
:1011700028B10468012C05D9072003B0F0BD0E206A
:1011800003B0F0BD04EB4404A400134D2E592C44CD
:10119000002EF1D0268965896468476806FB0544FE
:1011A000A742E9D2002AE7D09642E5D3D418A64256
:1011B000E2DB8E0701D01020D7E79D07FBD1BC07EB
:1011C000F9D11C46009413460A4601460120FEF759
:1011D00081FFCAE7583B00203C3B0020F0B51D4C86
:1011E0002468670783B002D4082003B0F0BD31B192
:1011F00028B10468012C05D9072003B0F0BD0E20EA
:1012000003B0F0BD04EB4404A400134D2E592C444C
:10121000002EF1D0268965896468476806FB05447D
:10122000A742E9D2002AE7D09642E5D3D418A642D5
:10123000E2DB8E0701D01020D7E79D07FBD1BC076A
:10124000F9D11C46009413460A4601460420FEF7D5
:1012500041FFCAE7583B00203C3B00202DE9F0410C
:10126000254C2468660782B003D4082002B0BDE88C
:10127000F08139B130B10C68012C07D9072002B0D8
:10128000BDE8F0810E2002B0BDE8F08104EB44041B
:10129000A4001A4F3D593C44002DEFD026896589A2
:1012A0006468D1F804E006FB0544A645E6D2002AAE
:1012B000E4D09642E2D3D418A642DFDB850701D002
:1012C0001020D3E79C07FBD11EF00304F8D1884619
:1012D00003EB0E011646054605F0AEFBD8F80020DC
:1012E00000960C2303FB02F240462B460221BD5818
:1012F0002246A8472046B9E7583B00203C3B002047
:10130000204B1B685B0701D40820704720B103689D
:10131000012B03D9072070470E20704770B503EBEF
:1013200043039B00184AD45882B013444CB11A4668
:101330005D6832F8086F4468538806FB03539C428B
:1013400002D3072002B070BDA20701D01020F9E738
:10135000651BB5FBF6F206FB1255002DF1D1B1FB72
:10136000F6F206FB121292B2002AEAD10029E8D066
:101370000C44A342E5D30B46009201460320FEF73E
:10138000A9FEDFE7583B00203C3B0020064B1B68D2
:101390005B0701D40820704720B1044B5B780360E1
:1013A000002070470E207047583B0020683A00200C
:1013B00010B1436801201847704700BF38B5194C79
:1013C00094F854500DB1082038BD4FF0FF3306207B
:1013D0000146FF2223636363A363E36323646364BF
:1013E000A364E36423606360A360E36023616361DB
:1013F000A361E361236284F850306362A36284F8DE
:101400005230E36284F8533084F85120FEF788FCB0
:10141000054A4FF000410123C2F8041384F8543008
:10142000284638BD743B002000600040034B93F811
:101430005400003018BF0120704700BF743B0020EB
:1014400070B43A4B1A1892F93040013402D0082097
:1014500070BC70478C78DCB11A6801325AD05A6877
:10146000013259D09A68013258D0DA68013257D027
:101470001A69013256D05A69013255D09A6901323F
:1014800021D0DA69013208BF07241DD00420DFE72C
:10149000FE2382F830304B78012B0ED001234FF021
:1014A000A0428340C2F80C3500F5E0704FF0A04335
:1014B000032243F820200020CAE74FF0A0428340D7
:1014C000C2F80835F0E70624A20002F1804202F5D6
:1014D000C0421D18002643F8246085F83040D2F839
:1014E00010650B784C7826F498161B04240526F416
:1014F000F85603F44035C2F8106504F48013040272
:101500002B4304F4F854D2F8105523432B43C2F86C
:101510001035C0E70024D7E70124D5E70224D3E73C
:101520000324D1E70424CFE70524CDE7743B002052
:1015300070B40F4B1A1892F83020D1B207290AD88C
:1015400052B202F5A2720B4C4FF0FF36002543F861
:10155000216044F8225003444FF0A04200F5E070AF
:10156000FF24022183F8304042F8201070BC7047FD
:10157000743B0020006000400C4B184490F9303060
:101580009B0003F1804303F5C043D3F8102542F4D8
:10159000F85141F00301C3F8101542F0030200BFF7
:1015A00000BF00BFC3F81025704700BF743B002088
:1015B000074B184490F930309B0003F1804303F54A
:1015C000C043D3F8102522F00302C3F8102570475A
:1015D000743B0020054B184490F930008000C0B2E5
:1015E00000F1804000F5C040704700BF743B002010
:1015F0000A4B1844002914BF4FF48011002190F9C0
:1016000030309B0003F1804303F5C043D3F810252D
:1016100022F480121143C3F810157047743B002068
:10162000F0B5634C251895F93030002B01DB08200C
:10163000F0BD91F803E09446BEF1000F56D0236848
:10164000013300F0AD80082600256B1C584F54F87C
:101650002320013251D0AB1C9E4245D957F823209C
:1016600001324AD0EB1C9E423ED957F8232001326A
:1016700043D02B1D9E4237D957F8232001323CD04E
:101680006B1D9E4230D957F82370013735D0AB1D02
:101690009E4229D954F82320454F01322DD0EB1D0D
:1016A0009E4221D957F82320013226D005F10803A4
:1016B0009E4219D957F8232001321ED005F10903A3
:1016C0009E4211D957F82320013216D005F10A03A2
:1016D0009E4209D957F8237001370ED00B35AE4220
:1016E00002D9E36A013307D00420F0BD236A013335
:1016F0004ED00C260825A8E70B232618DDB244F8A7
:1017000023C086F83050BEF1000F02D1234483F885
:1017100048008B78ABB94A784FF0A04600F5E073EB
:10172000920046F82320CB78ABB96AB2083A144449
:10173000097894F8502042EA811284F85020184623
:10174000F0BD830003F1A043D3F8002722F002028A
:10175000C3F80027E7E76BB29B0003F1804303F572
:10176000C0430A78D3F8101521F4473121F44071B1
:10177000C3F810151204000202F44031D3F81045EA
:1017800000F4F8520A432243C3F810250020F0BDAC
:10179000082685F830603346C4F820C03546B5E7E2
:1017A000002385F83030C4F800C01D46B1E700BF03
:1017B000743B0020F0B42E4D2E1882B096F83020E5
:1017C00053B2072B1CDD2B4493F848309B09032BA5
:1017D00040D0012B0CBF4FF400314FF4403180005A
:1017E00000F1A040D0F8002722F44032C0F80027D2
:1017F000D0F800370B43C0F8003702B0F0BC704798
:10180000072AFAD8980000F1804000F5C04003F1A3
:1018100040029200D0F8104592B202F180420027B7
:1018200044F0010402F5C042C0F810450197019848
:1018300017600029E1D096F9302055F82220002ABF
:10184000DBD001220B4902FA03F3C1F8043302B0E2
:10185000F0BC70474FF0A0420123D2F8102583401E
:10186000134214BF4FF440314FF40031B7E700BFCB
:10187000743B002000600040154B034493F8302077
:1018800053B2072B16DC072A13D810B49A0002F1C2
:10189000804202F5C0420F4CD2F81005012120F021
:1018A000010001FA03F3C2F81005C4F808335DF82B
:1018B000044B7047800000F1A040D0F8003723F4BB
:1018C0004033C0F80037D0F80037C0F80037704711
:1018D000743B0020006000404FF0A043D3F8103567
:1018E00023FA00F000F00100704700BF2DE9F04F2F
:1018F000A94B1A68012A83B000F0B2800024A74BDC
:101900001A68012A00F0BE80A54B1A68012A00F06F
:10191000CB80A44B1A68012A00F0D880A24B1A6829
:10192000012A00F0E580A14B1A68012A00F0F2803C
:101930009F4B1A68012A00F0FF809E4B1A68012A0B
:1019400000F00C819C4B1A68012A00F019814FF0BD
:10195000000814F0FF0F17D0E20700F13581A3074C
:1019600000F14181670700F14D81260700F159819F
:10197000E50600F16581A00600F17181610600F1C4
:101980007D81220600F18981002C02DB03B0BDE8D5
:10199000F08F8A4D4FF0FF36A5F153074FF0000A44
:1019A000874C4FF0000914F8011FFF2920D0C9B25D
:1019B00021F0C00026FA00F3DB0719D53B1889098E
:1019C00093F9303057F823204AB34FF0010E032922
:1019D0000EFA00FE29D0830003F1A0431EEA080F8F
:1019E000D3F800C7CCF3014C10D1BCF1030F1FD0CA
:1019F000AC42D8D1B9F1000FC8D04FF0A043D3F812
:101A000010359845C2D098465646C9E7BCF1020F3A
:101A1000EED1032911D0002AEAD09047E8E7032944
:101A2000E6D14FF0010E0EFA00FE4AEA0E0AD2E7A6
:101A30000329F0D14FF4003B01E04FF4403BD3F8D1
:101A400000C72CF4403CC3F800C7D3F800E709F105
:101A500001094BEA0E0E5FFA89F9C3F800E7DAE7ED
:101A60005849D1F8041311F001043FF448AF0021A4
:101A700019601B680093009B484B14461A68012AA2
:101A80007FF442AF4F4AD2F8042391077FF53CAF71
:101A900000221A601B680093009B414B1A68012AC0
:101AA00044F002047FF435AF464AD2F804235207CB
:101AB0007FF52FAF00221A601B680093009B394B03
:101AC0001A68012A44F004047FF428AF3D4AD2F892
:101AD000042317077FF522AF00221A601B680093CA
:101AE000009B314B1A68012A44F008047FF41BAFB5
:101AF000344AD2F80423D6067FF515AF00221A60C7
:101B00001B680093009B294B1A68012A44F01004BB
:101B10007FF40EAF2B4AD2F8042395067FF508AF69
:101B200000221A601B680093009B214B1A68012A4F
:101B300044F020047FF401AF224AD2F80423500677
:101B40007FF5FBAE00221A601B680093009B194BC7
:101B50001A68012A44F040047FF4F4AE194AD2F81E
:101B6000042311067FF5EEAE00221A601B68009375
:101B7000009B114B1A68012A44F080047FF4E7AE01
:101B800000221A601B6801934FF0A043019AD3F81A
:101B9000108544F00044DCE6006100400461004030
:101BA000086100400C610040106100401461004079
:101BB000186100401C6100407C610040C73B002070
:101BC000C33B0020006000403A4B3B4AD3F810056D
:101BD000D3F810151368C0F30420C1F301419847EE
:101BE000A3077FF5BFAE334B334AD3F81405D3F8C0
:101BF00014155368C0F30420C1F3014198476707E7
:101C00007FF5B3AE2B4B2C4AD3F81805D3F8181533
:101C10009368C0F30420C1F30141984726077FF57C
:101C2000A7AE244B244AD3F81C05D3F81C15D3685F
:101C3000C0F30420C1F301419847E5067FF59BAE50
:101C40001C4B1D4AD3F82005D3F820151369C0F3A7
:101C50000420C1F301419847A0067FF58FAE154BD4
:101C6000154AD3F82405D3F824155369C1F301416B
:101C7000C0F30420984761067FF583AE0D4B0E4AF2
:101C8000D3F82805D3F828159369C0F30420C1F3CD
:101C90000141984722067FF577AE064B064AD3F8F6
:101CA0002C05D3F82C15D369C0F30420C1F30141EE
:101CB000984769E600600040743B00202DE9F04140
:101CC0002D4B1A6884B0002A31D12C4B2C4F1D6843
:101CD000002D47D13C699CB14FF000480126B4FA71
:101CE00084F18B0003F58C7303F1804202F5E0422E
:101CF00028FA01F0116824EA000421B9002CEED181
:101D000004B0BDE8F081A3F58C7383F00401C1F346
:101D10008001DB088DF8083015608DF804608DF8BF
:101D200009103B6801A89847002CD8D1E8E70022A9
:101D3000134F1A607B68134902938DF80420FB68E7
:101D4000D1F83406ADF80C009BB1B88A7B60012352
:101D5000FA6038810B603B6801A89847074B1D6803
:101D6000002DB7D000221A6087F8272004B0BDE804
:101D7000F08187F82730EEE70471004014710040CD
:101D8000CC3B00200070004070B5174B93F8264004
:101D90000CB1082070BD21B3144A154D19600028FC
:101DA00008BF1046134A0178C5F8F0154178C5F808
