:020000021000EC
:10C0000000000120253F02004D3F02004F3F02008B
:10C01000513F0200533F0200553F02000000000064
:10C0200000000000000000000000000061CA0100E4
:10C03000593F02000000000081CA01005D3F02007C
:10C040005F3F02005F3F02005F3F02005F3F020070
:10C050005F3F02005F3F0200A9FD01005F3F020059
:10C060005F3F02005F3F02005F3F02005F3F020050
:10C070005F3F02005F3F02005F3F02005F3F020040
:10C080005F3F02008DCB01005F3F02005F3F020077
:10C090005F3F02005F3F0200913E02005F3F0200EF
:10C0A0005F3F02005F3F02005F3F02005F3F020010
:10C0B0005F3F02005F3F0200000000000000000040
:10C0C0005F3F02005F3F02005F3F02005F3F0200F0
:10C0D0005F3F02005F3F02005F3F02000000000080
:10C0E0000000000000000000000000000000000050
:10C0F0000000000000000000000000000000000040
:10C10000000000000000000000000000000000002F
:10C11000000000000000000000000000000000001F
:10C4000010B5054C237833B9044B13B10448AFF38E
:10C4100000800123237010BDF820002000000000E0
:10C42000A0400200084B10B51BB108480849AFF303
:10C4300000800848036803B910BD074B002BFBD0F0
:10C44000BDE81040184700BF00000000A0400200F7
:10C45000FC200020F420002000000000154B002BE1
:10C4600008BF134B9D46A3F5803A00218B460F462B
:10C470001348144A121A00F065F80F4B002B00D035
:10C4800098470E4B002B00D0984700200021040055
:10C490000D000D48002802D00C48AFF3008000F0DA
:10C4A0002BF82000290004F05FFC00F011F800BF19
:10C4B0000000080000000120000000000000000053
:10C4C000F8200020F43900200000000000000000E7
:10C4D00008B5074B044613B10021AFF30080054BAC
:10C4E0001868836A03B19847204600F033F800BF0C
:10C4F00000000000C43F020070B50E4B0E4CE41A61
:10C50000A41000251E46A54204D056F825309847B1
:10C510000135F8E707F048FD084C094BE41AA41070
:10C5200000251E46A54204D056F82530984701350F
:10C53000F8E770BDEC200020EC200020F020002067
:10C54000EC20002002440346934202D003F8011B72
:10C55000FAE77047FEE700BF2DE9F84F234B1A7842
:10C560008AB3DFF88CB0DFF88C80DFF88C90002481
:10C570004FF0010A03E00134E4B2944223D226B220
:10C58000D8F80050DBF8003015F836000AFA00F150
:10C59000194205EBC607EED0154A23EA01031360E2
:10C5A00003F0F8FB15F83650D9F800300AFA05F117
:10C5B0000B4000FA05F18B4207D00C4B01341A787E
:10C5C000E4B29442DBD3BDE8F88F79787B68A1F1BF
:10C5D0000101B1FA81F14909002BEED0091A284670
:10C5E000B1FA81F149099847E7E700BF1C21002013
:10C5F00044210020182100204021002070B506466B
:10C60000114800F06BF940B9104D01242B68B4407B
:10C610001C4203D023EA04042C6070BD304603F0B2
:10C62000B9FB0B4E326860B122432B680949326076
:10C630001C432C60044809680022BDE8704000F0EB
:10C64000DBB822EA0402F0E7202100204421002088
:10C650004021002014210020F0B5042A85B017469F
:10C6600002D8072005B0F0BD0191054603F05CFA41
:10C670000199002830D01C4CDFF888E01B481C4A88
:10C680001C4B256000264C1E07608EF800101660BB
:10C690001E60E4B2032709B918E01C4623B205EB7B
:10C6A000C30215F833009378134A8DF80D3003A9AF
:10C6B0008DF80C708DF80E608DF80F6003F03EFA67
:10C6C000631E0028CED1DBB2002CE6D10B4A0C4809
:10C6D000002100F065F8C5E7019103F0EDF901993B
:10C6E0000028C8D0BEE700BF182100201421002078
:10C6F0004021002044210020FDC5010059C5010052
:10C70000C83F02001C21002070B5084D2B785BB19A
:10C71000074E00243368012113F8340003F0D8FADF
:10C720002B780134A342F5D8002070BD1C210020D5
:10C730001821002000B585B000230390194644F26B
:10C74000010001AAADF80430029300F003F805B02F
:10C750005DF804FBBFF34F8F0549064BCA6802F42E
:10C76000E0621343CB60BFF34F8F00BFFDE700BF14
:10C7700000ED00E00400FA0510B501F045FE037B72
:10C7800003B910BD83680068BDE81040184700BFBA
:10C79000024B013018600020704700BF4821002084
:10C7A00070B582B0056822B12B7B2BB1082002B096
:10C7B00070BD072002B070BD6B68002BF6D1144627
:10C7C0000E46042219462846FFF7BCFE321C084BD1
:10C7D000AC6018BF0122009306484FF47A712B46D3
:10C7E00001F022FC0028686014BF00200E20DEE764
:10C7F00079C70100CC3F02002DE9F043344B354CA2
:10C800004768D4F80885D3F8009085B0002F46D04B
:10C81000037B15460C460646002B44D108F1010364
:10C82000590809FB04113560B1FBF3F2EFF30584FD
:10C830007CB94FF00208CDF8008038460421234629
:10C8400001F046FC0128054634D0042005B0BDE8BF
:10C85000F08304AC002544F8045D38460095234677
:10C86000092101F035FC0128EFD101F005F8009510
:10C87000024623463846062101F02AFC0128E4D16D
:10C88000039B43B1144B4FF080525A6040BFBFF33B
:10C890004F8FBFF36F8F012333730020D6E708203B
:10C8A00005B0BDE8F083384601F0A2FD0028B5D000
:10C8B0000020CBE700F0DAFFCDF8008002462946E1
:10C8C0003846234601F004FC0128BED1E3E700BF4F
:10C8D000482100200010014000ED00E042684AB30A
:10C8E00010B5044684B0EFF3058252B902230093D9
:10C8F0000321134601F0ECFB012817D0042004B0FB
:10C9000010BD04AB002243F8042D0821009201F071
:10C91000DFFB0128F2D1039B43B1074B4FF080525C
:10C920005A6040BFBFF34F8FBFF36F8F002020735B
:10C9300004B010BD0820704700ED00E020B1034BAB
:10C940005B6D036000207047032070474C2100207E
:10C9500038B5430704461CBF20F00704083400F034
:10C960007DFF0E4B1D689DB10D4A136840F6F771AF
:10C970001C448C4207D8A34205D21D44146001F028
:10C9800017F8284638BD002501F012F8284638BDB2
:10C99000044D25F007051D60E6E700BFA821002033
:10C9A000A4210020B4210020704700BF00F108033B
:10C9B0004FF0FF310022816080E80C00C36003610A
:10C9C000704700BF00230361704700BF43684B609E
:10C9D0009A688A609A6851609960086103680133B7
:10C9E0000360704730B40D686B1C11D000F1080271
:10C9F00000E01A4653681C68A542FAD24B60996061
:10CA00008A605160086103680133036030BC70477D
:10CA100002695368F2E700BF426881680369916068
:10CA20008268416851605A68824204BF82685A60D5
:10CA300000220261186801381860704707480068D2
:10CA400080F3088862B661B6BFF34F8FBFF36F8F74
:10CA50004FF4F07080F3118800DF00BF00C00100C8
:10CA6000064B19680868B0E8F04F80F30988BFF3F7
:10CA70006F8F4FF0000080F311887047283200203C
:10CA8000EFF30980BFF36F8F144B1A681EF0100F7D
:10CA900008BF20ED108A20E9F04F10604DF8043DEA
:10CAA0004FF0200080F31188BFF34F8FBFF36F8FDB
:10CAB00001F074F84FF0000080F3118808BC196889
:10CAC0000868B0E8F04F1EF0100F08BFB0EC108AF5
:10CAD00080F30988BFF36F8F704700BF28320020B2
:10CAE000202383F31188FEE730B46FF002034FF088
:10CAF0008075074C40F8081C40F8202C40F8045C76
:10CB000040F80C4C40F8243C30BC4438704700BF1F
:10CB1000E1CA01000F4C08B5E02384F8223000F090
:10CB200071F80D4B0D4A00211960D4F8883043F498
:10CB30007003C4F88830536843F04043536023695E
:10CB400043F010032361FFF779FF202383F311885B
:10CB5000FEE700BF00ED00E0AC31002030EF00E068
:10CB6000202383F31188024A13680133136070474E
:10CB7000AC310020034A1368013B13600BB983F307
:10CB800011887047AC31002048DF704700B5194963
:10CB9000194B00220A6083B00968009100991A605D
:10CBA0001B680193019BEFF31183202383F311880A
:10CBB00000F062FE114BD3F80435181A30F07F40B4
:10CBC00009D002280DD800F065FE20B10C4B4FF0C3
:10CBD00080525A6040BF002383F3118803B05DF890
:10CBE00004FB013800F04EFE00F054FE0028EDD1A9
:10CBF000F1E700BF00110140401101400010014069
:10CC000000ED00E070B5002002F050FF084D094B28
:10CC1000094901222026E0244FF40030C3F80865BA
:10CC2000C3F804232A601A6081F81143086070BDBC
:10CC3000081001400010014000E100E030B51C4C3C
:10CC4000844283B028BF0446202383F31188194A05
:10CC500019490123C2F80833D2F80435234423F0DC
:10CC60007F430025C2F840350D600B6801934FF4F7
:10CC700080330199C2F8043301F0D6F868B17CB969
:10CC8000002383F311880B4B4FF480310122C3F84A
:10CC90000813C3F8042303B030BD80F31188F2E712
:10CCA000BFF34F8F85F31188FFF76EFFE8E700BFF2
:10CCB000FDFFFF00001001404011014070B5064625
:10CCC0000D4651B300FB01F04D30FFF741FE044625
:10CCD00000F14C0340B32360E6632564FFF740FF97
:10CCE000226CE36B2168A16003FB02F39A1A0A44E9
:10CCF0000B4400204FF0FF31A063E2606164636089
:10CD000004F11000A164FFF751FE04F12400FFF7C5
:10CD10004DFEFFF72FFF204670BD4C20FFF718FE99
:10CD2000044603460028D6D10024F4E72DE9F04755
:10CD3000044684B01D4601928846FFF711FFA26B9E
:10CD4000E36BA64F4FF000099A424E4670D3022D76
:10CD500000F0EF800198002800F04281B9F1000F47
:10CD60007AD0FFF707FF00F079FDFFF7F9FE636C5B
:10CD7000013308BF6664A36C013308BFA664FFF7E4
:10CD8000F9FE02A801A901F019F8002840F0E2809C
:10CD9000FFF7E6FEA36BE26B9A4261D0FFF7EAFE73
:10CDA000FFF7DEFEA36C002B14DD636A93B104F180
:10CDB000240907E0A36C013BA364A36C002B09DDED
:10CDC000636A3BB1484600F09FFF0028F2D001F0B3
:10CDD00025F8EFE74FF0FF33A364FFF7CBFEFFF733
:10CDE000BFFE636C002B14DD236993B104F11009BD
:10CDF00007E0636C013B6364636C002B09DD23690E
:10CE00003BB1484600F080FF0028F2D001F006F860
:10CE1000EFE74FF0FF336364FFF7ACFE00F0C8FDAF
:10CE2000FFF79EFEA26BE36B9A424FF001098ED290
:10CE3000226C002A63D12568002D00F0F780A36BD7
:10CE4000626A0133A363002A40F0DF80FFF792FE9D
:10CE5000012004B0BDE8F08702A800F0A3FF80E73E
:10CE600004F11009FFF786FE4846019900F0C2FE62
:10CE7000FFF776FEA36C002B14DD636A93B104F117
:10CE8000240A07E0A36C013BA364A36C002B09DD1B
:10CE9000636A3BB1504600F037FF0028F2D000F043
:10CEA000BDFFEFE74FF0FF33A364FFF763FEFFF72B
:10CEB00057FE636C002B06DC0FE0636C013B636480
:10CEC000636C002B09DD23693BB1484600F01CFF71
:10CED0000028F2D000F0A2FFEFE74FF0FF336364C9
:10CEE000FFF748FE00F064FD002899D14FF0805311
:10CEF0007B6040BFBFF34F8FBFF36F8F90E741461A
:10CF0000002D74D0E06807F03BF8236CE2682168DC
:10CF10005B421A448A42E26002D262681344E360D0
:10CF2000022D8CD1A36B002B89D0A36B013BA36393
:10CF300085E7226C002A3FF47EAF4146E06807F0A7
:10CF40001FF8236CE26821685B421A448A42E2605F
:10CF5000E3D3E7E7FFF704FEA36C002B14DD636A5D
:10CF600093B104F1240507E0A36C013BA364A36C17
:10CF7000002B09DD636A3BB1284600F0C5FE00289E
:10CF8000F2D000F04BFFEFE74FF0FF33A364FFF761
:10CF9000F1FDFFF7E5FD636C002B14DD236993B110
:10CFA00004F1100507E0636C013B6364636C002BC4
:10CFB00009DD23693BB1284600F0A6FE0028F2D027
:10CFC00000F02CFFEFE74FF0FF336364FFF7D2FD73
:10CFD00000F0EEFC002004B0BDE8F08700ED00E0BA
:10CFE0000090FFF7C7FD009804B0BDE8F087A06887
:10CFF00006F0C6FFA168236C62680B449342A360ED
:10D00000FFF41DAF2368A36019E704F1240000F0CA
:10D010007BFE01287FF41AAF0B4B4FF080525A6011
:10D0200040BFBFF34F8FBFF36F8F0FE7606800F013
:10D0300069FFA36B626A65600133A363002AE4D1D0
:10D040000028E9D102E700BF00ED00E0F8B5044692
:10D0500017461D46EFF31186202383F31188826B58
:10D06000C36B9A4205D3022D2DD0002086F3118880
:10D07000F8BD026C7AB92568002D4ED0A36B013340
:10D08000A363A36C01333AD0A36C0133A3640120E2
:10D0900086F31188F8BD2DB3C06806F071FF236CCC
:10D0A000E26821685B421A448A42E26002D2626806
:10D0B0001344E360022DE1D1A36B002BDED0A36B00
:10D0C000013BA363DAE7026C002AD4D0C06806F003
:10D0D00057FF236CE26821685B421A448A42E2608F
:10D0E000E5D3E9E7806806F04BFFA168236C62682E
:10D0F0000B449342A360C1D32368A360BEE7636A75
:10D10000002BC4D004F1240000F0FEFD0028BED0A6
:10D11000002FBCD001203860A8E7606800F0F2FE64
:10D120006560ABE72DE9F047044684B09A4688462F
:10D130000192FFF715FDA36BA34E00273D46002B80
:10D140007AD10198002800F0F380002F00F0DC80F5
:10D15000FFF710FD00F082FBFFF702FD636C013367
:10D1600008BF6564A36C013308BFA564FFF702FD27
:10D1700002A801A900F022FE002840F0E080FFF79D
:10D18000EFFCA36B002B40F08480FFF7F3FC2368D7
:10D19000002B00F0C58004F124094846019900F0F5
:10D1A00029FDFFF7DDFCA36C002B06DC0FE0A36C70
:10D1B000013BA364A36C002B09DD636A3BB14846C5
:10D1C00000F0A2FD0028F2D000F028FEEFE74FF0BB
:10D1D000FF33A364FFF7CEFCFFF7C2FC636C002BA8
:10D1E00014DD236993B104F1100907E0636C013B7E
:10D1F0006364636C002B09DD23693BB1484600F092
:10D2000083FD0028F2D000F009FEEFE74FF0FF3376
:10D210006364FFF7AFFC00F0CBFB38B94FF08053ED
:10D22000736040BFBFF34F8FBFF36F8FFFF798FC62
:10D23000A36B0127002B84D0226CE5684AB1636898
:10D24000A9189942E16024BF2168E160404606F0D8
:10D2500097FEBAF1000F40F0B980A36B2268013B42
:10D26000A363002A00F0C3802369002B00F0B18083
:10D2700004F1100000F048FD012840F0AA80524B54
:10D280004FF080525A6040BFBFF34F8FBFF36F8F94
:10D290009FE0FFF76FFCFFF763FCA36C002B14DD2E
:10D2A000636A93B104F1240907E0A36C013BA36412
:10D2B000A36C002B09DD636A3BB1484600F024FDF6
:10D2C0000028F2D000F0AAFDEFE74FF0FF33A3648F
:10D2D000FFF750FCFFF744FC636C002B18DD23695B
:10D2E000B3B104F1100907E0636C013B6364636C44
:10D2F000002B0DDD23695BB1484600F005FD0028D9
:10D30000F2D000F08BFDEFE702A800F04BFD1FE725
:10D310004FF0FF336364FFF72DFC00F049FB85E716
:10D32000FFF71EFC606800F09FFDFFF723FC32E76B
:10D330000090FFF71FFC009804B0BDE8F087FFF7EE
:10D340000FFCA36C002B14DD636A93B104F1240578
:10D3500007E0A36C013BA364A36C002B09DD636AA7
:10D360003BB1284600F0D0FC0028F2D000F056FD7A
:10D37000EFE74FF0FF33A364FFF7FCFBFFF7F0FB91
:10D38000636C002B14DD236993B104F1100507E0F1
:10D39000636C013B6364636C002B09DD23693BB163
:10D3A000284600F0B1FC0028F2D000F037FDEFE78E
:10D3B0004FF0FF336364FFF7DDFB00F0F9FA002064
:10D3C00004B0BDE8F08700BF00ED00E0636AE560EF
:10D3D0002BB9FFF7CFFB012004B0BDE8F08704F1C3
:10D3E000240000F091FC00287FF449AFF1E700F041
:10D3F000CBFD606038E700BF10B4074B1A682AB154
:10D400009A6812B15DF8044B7047012203EBC20425
:10D4100043F832106060F5E7D839002038B504468B
:10D420000D46FFF79DFB636C013304BF002363646B
:10D43000A36C013304BF0023A364FFF79BFBA36B22
:10D4400023B9294604F1240000F01EFCFFF788FBF5
:10D45000A36C002B14DD636A93B104F1240507E08B
:10D46000A36C013BA364A36C002B09DD636A3BB191
:10D47000284600F049FC0028F2D000F0CFFCEFE78E
:10D480004FF0FF33A364FFF775FBFFF769FB636C95
:10D49000002B14DD236993B104F1100507E0636CE0
:10D4A000013B6364636C002B09DD23693BB12846B3
:10D4B00000F02AFC0028F2D000F0B0FCEFE74FF0BB
:10D4C000FF336364BDE83840FFF754BB2DE9F84FE4
:10D4D0000C9C0B9E81468A46154698462746002C92
:10D4E00000F097804820FFF733FA0446002800F048
:10D4F0009B80AD002A460763A5213846FFF722F836
:10D500009AF80030226B84F83430043D9AF80030E9
:10D51000154425F0070553B19AF8013084F83530E9
:10D520009AF801301BB19AF8023084F836300A9B21
:10D53000022B28BF0223002704F1040AE362A3633D
:10D54000504684F83770E7639B46FFF73BFA04F1D7
:10D550001800FFF737FACBF103032764A3612461B6
:10D5600084F844706462284649464246FFF7BCFA94
:10D57000206006B13460FFF7F3FA3F4A3F4D13686D
:10D58000013313602B68002B3CD0DFF82081D8F8E2
:10D5900000306BB3DFF818E1394EE36ADEF80000C3
:10D5A0003768384A012404FA03FC03EB83034CEA8E
:10D5B000000C514602EB83003A19CEF800C03260ED
:10D5C000FFF704FAFFF7D6FAD8F80030BBB12B68A2
:10D5D0000A9ADB6A9A4212D92B4B4FF080525A605A
:10D5E00040BFBFF34F8FBFF36F8F2046BDE8F88F6A
:10D5F0002B680A9ADB6A9A4228BF2C60CAE7204649
:10D60000BDE8F88F2C601368012B11D0DFF89C80E7
:10D61000C0E79000FFF79CF9074600287FF462AF4F
:10D620004FF0FF30BDE8F88F3846FFF7BDF9F7E758
:10D630001448DFF88090154EDFF87080FFF7B6F9D8
:10D640001348FFF7B3F91348FFF7B0F94846FFF75F
:10D65000ADF93046FFF7AAF90F48FFF7A7F90F48D1
:10D66000FFF7A4F90E48FFF7A1F90E4A0E4BC2F8D6
:10D6700000901E608EE700BF7C3200202832002020
:10D680004C320020E831002000ED00E06432002040
:10D69000FC310020103200202C320020C03100204C
:10D6A000D4310020B431002048320020B8310020AD
:10D6B00080320020503200202DE9F843F020FFF79F
:10D6C00047F90546002875D04820FFF741F9044680
:10D6D000002877D00563A5212846F022FEF732FF07
:10D6E000206B4C4F0025492144224C2304F10408AF
:10D6F00084F8341084F8352084F8363000F1EC06D4
:10D7000084F837504046E562A563E563FFF75AF9B0
:10D7100004F11800FFF756F926F0070603232A46FE
:10D720002564A3613C4984F8445030462461646216
:10D73000FFF7DAF9394B20601C60FFF711FA384A1D
:10D740001368013313603B68002B35D0354E3368C6
:10D750001BB93B68DB6A03B93C60DFF8F4C0DFF853
:10D76000F4E0E36ADCF80050DEF800202E480124E3
:10D770009C4003EB830300EB8300013241462C43C2
:10D78000CCF80040CEF80020FFF720F9FFF7F2F9BF
:10D79000336803B13B6800F003FC01280AD1202361
:10D7A00083F31188214B306000221A60BDE8F843F2
:10D7B000FFF7B0B9BDE8F8833C601368012B06D0D1
:10D7C000184ECAE72846BDE8F843FFF7EDB81648FB
:10D7D000DFF88490164D134EFFF7E8F81548FFF771
:10D7E000E5F81548FFF7E2F84846FFF7DFF8284666
:10D7F000FFF7DCF81148FFF7D9F81148FFF7D6F822
:10D800001048FFF7D3F8104A104BC2F800901D6083
:10D81000A3E700BF28320020A5DA01004032002033
:10D820007C320020B8310020E83100204432002052
:10D8300064320020FC310020103200202C32002005
:10D84000C0310020D4310020B43100204832002003
:10D85000803200204C32002050320020024A1368EF
:10D8600001331360704700BF24320020014B186859
:10D87000704700BF44320020014B1868704700BF5A
:10D8800044320020024A136818441060704700BFF9
:10D89000443200202DE9F04F3A4B1B6883B0002B37
:10D8A00043D1394B1A6801321A601F68002F4AD0E1
:10D8B000364B01931B689F423BD3DFF8E480344E24
:10D8C000DFF8E890C246002525E0DAF80030DB6892
:10D8D000DC68636804F1040B9F42584622D3FFF7CB
:10D8E0009BF8A36A04F118000BB1FFF795F8E06A02
:10D8F00033680122824000EB80001343594609EB54
:10D9000080003360FFF762F8224BE26A1B68DB6A33
:10D910009A4228BF0125D8F800301B68002BD4D1CB
:10D920004FF0FF33019A136004E01B4A1368013380
:10D9300013600025194B1B68002B18BF01252846D2
:10D9400003B0BDE8F08F164B164A186816491468E4
:10D950001C6010600A6801320A601A6812683AB9DD
:10D960000A4B01931A464FF0FF3313601346A1E7A9
:10D970001B68064ADB680192DB685B68136013462C
:10D9800098E700BF2432002044320020E02000202D
:10D99000803200202832002078320020843200209B
:10D9A000B431002048320020B0310020E83100209E
:10D9B0002DE9F84FFFF7D4F8314B1A68013A1A6095
:10D9C0001B68002B47D12F4B1B68002B43D0DFF87F
:10D9D000C8B02D4FDFF8C490DFF8C480DA4620E0ED
:10D9E000DAF80C30DC68251D04F11800FFF714F894
:10D9F0002846FFF711F8E06A3B6806FA00FE00EBE4
:10DA000080004EEA0303294609EB80003B60FEF7E5
:10DA1000DDFFD8F80030E16ADB6A994224BF1B4B76
:10DA20001E60DBF800300126002BD9D1184C23688A
:10DA30006BB123685BB10125FFF72CFF08B1134BD5
:10DA40001D602368013B23602368002BF4D10F4B3A
:10DA50001C68012C05D00024FFF78CF82046BDE897
:10DA6000F88F0C4B4FF080525A6040BFBFF34F8F7E
:10DA7000BFF36F8FFFF77EF82046BDE8F88F00BF39
:10DA8000243200207C3200208032002084320020AA
:10DA90007832002000ED00E02C320020E831002038
:10DAA000283200202DE9F84F334E344D344CDFF846
:10DAB000E880DFF8D0A0B34607E023683768013379
:10DAC0002360FFF775FF002F32D12B68002BF4D1B4
:10DAD000DAF800302B4A012B47D92B4B4FF08051FD
:10DAE000596040BFBFF34F8FBFF36F8F274B1B6849
:10DAF000DB6A002BE9D11368012BE6D8244B254AB9
:10DB00001B681268224823499B1A012BDDD9236820
:10DB1000013323601D4B1B68DB6A33B90368086857
:10DB2000181A012801D9FFF789F8FFF741FFCCE760
:10DB3000FFF716F8DBF80C30D3F80C9009F104006D
:10DB4000FEF76AFFD8F800200C4B013AC8F8002015
:10DB50001A68013A1A60FFF70DF8D9F83000FEF79D
:10DB600023FF4846FEF720FFAFE7084B1B68DB6A40
:10DB7000002BC3D0A9E700BFC0310020BC3100207A
:10DB800024320020E831002000ED00E0283200209F
:10DB9000E0200020443200207C320020104B1B6823
:10DBA000CBB91049104A0B601368B3FA83F3C3F181
:10DBB0001F030E4803EB83039B00C11808334A6818
:10DBC00052684A6003449A4204BF52684A60084B54
:10DBD000D2681A607047034B01221A60704700BF79
:10DBE000243200208432002080320020E8310020DE
:10DBF0002832002038B51D4D2B680C4603F1180162
:10DC0000FEF7F0FE28680430FEF706FF40B92B68E7
:10DC10001749D86A0A680123834022EA03030B608C
:10DC2000631C1CD0134A11491368286812681C44ED
:10DC3000944244600BD3104B186809680431FEF716
:10DC4000D1FE0E4B1A68944238BF1C6038BD0C4B95
:10DC500018680968BDE838400431FEF7C3BE29687A
:10DC600008480431BDE83840FEF7B0BE2832002035
:10DC70008032002044320020B4310020E020002017
:10DC800048320020D431002038B5194D2B680C469D
:10DC900003F11801FEF79AFE28680430FEF7BCFE77
:10DCA00040B92B681349D86A0A680123834022EAE5
:10DCB00003030B60104A0E491368286812681C445D
:10DCC000944244600BD30D4B186809680431FEF789
:10DCD00089FE0B4B1A68944238BF1C6038BD094B53
:10DCE00018680968BDE838400431FEF77BBE00BF04
:10DCF000283200208032002044320020B43100203D
:10DD0000E020002048320020F8B5C368DC6804F148
:10DD100018052846FEF780FE1A4B1B6833BB271DEB
:10DD2000194E3846FEF778FEE36A35681748012237
:10DD30009A4003EB83032A43394600EB83003260A9
:10DD4000FEF744FE124BE26A1B68DB6A9A4282BF0E
:10DD5000104B01201860104B1A68126898BF002001
:10DD60004AB90E4B4FF0FF321A60F8BD29460C48F5
:10DD7000FEF72CFEE6E71A68084BD268D2685268B4
:10DD80001A60F8BD2432002080320020E8310020E3
:10DD90002832002084320020B4310020E02000200E
:10DDA0002C320020034A044B12681B6880E80C00E8
:10DDB000704700BFB031002044320020F8B50D4656
:10DDC0000446FEF7CDFE2B6812495A1C08681BD08A
:10DDD000114E276832689742626801D090420ED295
:10DDE000871ABB420BD91B1A134430680A682B6090
:10DDF00084E805000025FEF7BDFE2846F8BD012594
:10DE0000FEF7B8FE2846F8BD0025FEF7B3FE28460B
:10DE1000F8BD00BF44320020B0310020014B012288
:10DE20001A60704784320020054B1B682BB9054BE4
:10DE30001868B0FA80F0400970470020704700BFB2
:10DE40002C32002084320020054B1B6833B1054B77
:10DE50001B68002B0CBF0220002070470120704778
:10DE6000B831002024320020002842D02DE9F041B2
:10DE7000214CC36A2268D26A934212D28269002A74
:10DE800004DB2268D26AC2F1030282611B4D42693F
:10DE900003EB830305EB83039A4204D02368DB6A18
:10DEA000C362BDE8F08100F1040807464046FEF772
:10DEB000B3FDF8B9FB6A124E03EB830255F822203A
:10DEC00032B93268012101FA03F322EA0303336015
:10DED00023683268D86AF86201238340134300EB59
:10DEE00080003360414605EB8000BDE8F041FEF75D
:10DEF0006DBD7047024EEBE728320020E83100206C
:10DF000080320020002838D0F8B5C36BC16A826B1C
:10DF1000013B9142C36300D00BB10020F8BD071D47
:10DF200004463846FEF778FD78B9E36A1448154E82
:10DF300003EB830250F822204AB93268012101FA2A
:10DF400003F322EA0303336001E00D480D4EA36B97
:10DF50003268E362012505FA03FCC3F1030E03EB0B
:10DF600083034CEA020200EB83003946C4F818E050
:10DF70003260FEF72BFD2846F8BD0020704700BF39
:10DF8000E831002080320020044B1A681AB1196869
:10DF9000CA6B0132CA631868704700BF283200207C
:10DFA000F0B5184C85B0FEF7DBFD25688DB1FEF7A6
:10DFB000E1FD206858B10223134A00930023019227
:10DFC00002930393114812495022FFF77FFA05B0DC
:10DFD000F0BD104F104E3846FEF7E8FC3046FEF715
:10DFE000E5FC0E4A0E4B176020202A4610211E60C9
:10DFF000FEF764FE20600028D9D00A49FFF7FCF93B
:10E00000D5E700BFB8320020C032002029E101006E
:10E01000D83F02008C320020A0320020883200203D
:10E02000BC320020D03F02002DE9F04F83B0F9B19F
:10E03000064628200D4698461746FEF789FC0446FA
:10E04000B0B1DFF88090FEF78BFDD9F80020A2B1C7
:10E05000FEF790FD0C9B2660201DA561E761C4F8CA
:10E0600020806362FEF7AEFC204603B0BDE8F08F6F
:10E070000024204603B0BDE8F08FDFF84CB0DFF895
:10E080004CA001925846FEF791FC5046FEF78EFCDC
:10E0900009490A4BC1F800B0019AC3F800A020203A
:10E0A0001021FEF70BFEC9F800000028D0D004496B
:10E0B000FFF7A2F9CCE700BF88320020BC32002075
:10E0C000D03F0200B83200208C320020A032002065
:10E0D00030B5144D2C6885B004B305298DE80600D1
:10E0E00002900BDCFFF7B0FE02280FD00022286858
:10E0F00013466946FEF71AFE05B030BD1A462046A3
:10E1000069460023FEF7A2FF05B030BD2868089AD3
:10E1100069460023FEF70AFE05B030BD204605B073
:10E1200030BD00BFB83200202DE9F04FAB4DAC4CF4
:10E13000DFF8B0828BB02B681E68002E6ED0DB68D3
:10E140001E68FFF78BFBFFF791FBD8F80030A54A5C
:10E15000834207466ED88642106040F2A480F11BCD
:10E160002068FFF75BF9FFF723FC40B99E4B4FF0A7
:10E1700080525A6040BFBFF34F8FBFF36F8F0022B2
:10E180001346206802A9FEF7CDFF0028D3D0029BDA
:10E19000002B3BDB049E736913B1301DFEF73CFC82
:10E1A000FFF764FBD8F800309842814623D3029AE7
:10E1B000C8F80090092AE2D80123934013F4047FA1
:10E1C00040F0D68013F0C70F40F0B6809B06D6D53E
:10E1D0003046FEF7E9FBD2E7DB68DF68D3F800B032
:10E1E00007F1040A5046FEF717FC7B6A3846984749
:10E1F000FB69012B4BD02B681A68002AECD17B4AB3
:10E20000764912680A60794A1360D0E7039B049844
:10E2100005999847029B002BB1DBBBE7FFF71EFB7C
:10E22000FFF724FBD8F800306E4A8342074601D836
:10E23000176094E74FF000090EE0DB68DE68D3F862
:10E2400000B006F1040A5046FEF7E6FB736A30465A
:10E250009847F369012B0ED02B681A68002AECD17D
:10E26000624A5E4912680A60604AC8F8007013602A
:10E27000FFF79EFB83E7B3695B445B45514627D9B3
:10E280007360564B36611868FEF7ACFBE4E7BB6978
:10E290005B445B4551462DD97B60504B3F6118680C
:10E2A000FEF7A0FBA7E7FFF783FB4C4B1B68DB687F
:10E2B000D3F80C9009F1040A5046FEF7ADFBD9F8EB
:10E2C0001C30012B29D0D9F824304846984756E70E
:10E2D0002368002BC0D0CDF81890CDF81CB008965C
:10E2E000FFF7B2FD3E4900221346086806A9FEF773
:10E2F0001DFDB1E72368002B3FF47DAF002306939B
:10E30000CDF81CB00897FFF79FFD35490022134652
:10E31000086806A9FEF70AFD6DE7D9F81830C9F8B4
:10E3200010909A19BA42C9F8042032D92B4B5146A1
:10E330001868FEF757FBC6E7039BB1693661CA1838
:10E340004A4572603AD8C3EB090399421BD8736AF5
:10E3500030469847F369012B7FF411AFB269039BF4
:10E3600000211A44009130460B46FFF7B1FE06E744
:10E37000039B366109EB03024A45B361726021D801
:10E38000002B3FF4FCAE194B311D1868FEF72AFB39
:10E39000F5E6BF1BBB421AD82368002B93D0002799
:10E3A0000796CDF820900697FFF74EFD0C493A46A8
:10E3B0003B46086806A9FEF7B9FC84E74B4501D93E
:10E3C0009342C4D9311D2868FEF70CFBD7E6074BF2
:10E3D00051461868FEF706FB75E700BF883200203B
:10E3E000B8320020B432002000ED00E0BC32002042
:10E3F00010B50446FEF7B4FB6469003418BF01246D
:10E40000FEF7B8FB204610BD10B50446FEF7A8FB8A
:10E41000246AFEF7AFFB204610BD00BF002810B4F1
:10E4200018DB00F1604303F561434901C9B283F889
:10E430000013C3B24009800000F1604000F5614064
:10E4400003F01F0201239340C0F8803103605DF8A0
:10E45000044B7047C3B2044A03F00F04490122443D
:10E46000C9B21176E6E700BFFCEC00E029DF704797
:10E4700028DF704730B1112805D1114A136843F0E5
:10E4800008031360704770B502460E480E490378C2
:10E4900009680E4E03EB830382B09B00C518009100
:10E4A000EC686B69297904EB440428460C3056F873
:10E4B0002440A047064B04221A7002B070BD00BF72
:10E4C000B4330020C4320020C03300209833002031
:10E4D000B93300202DE9F0475B4D5C4F2B785C4C45
:10E4E000DFF888A182B0032B50D8DFE803F0645F27
:10E4F00002522378DFF864914FF0805E03EB8303D0
:10E50000DEF81000D9F8008004EB830380B21A69AA
:10E51000B2FBF0F03860D988DEF81030013A0A44D6
:10E520009BB2B2FBF3F398424A4B08BF28F00108B4
:10E530001B680CBF48F0020828F00308C9F80080E7
:10E5400013B918F0020F75D0434A00214FF0102381
:10E5500011705B695A1C64D04FF08052106980B210
:10E56000B3FBF0F34FF08051013B0A69086992B2A6
:10E5700002FB03F380B2B3FBF0F0FFF779FF28B1A1
:10E58000112831D148F00803C9F8003002B0BDE8C5
:10E59000F0873868FFF76CFF0028F7D0112823D1E7
:10E5A0002E4A136843F008031360EFE702B0BDE89A
:10E5B000F04700F017BC2A482A496278002303601C
:10E5C0000B60002AE2D02278274902EB820204EB9A
:10E5D00082021379D2880A60032B26D0042B24D020
:10E5E000012BD3D12B707EE72378DFF87C8003EBFF
:10E5F00083039B0004EB030CE646DCF80C20DCF8FC
:10E6000014309CF80410D8F80060009602EB420C1D
:10E6100002465AF82CC00EF10C00E04704232B7080
:10E6200061E74FF080535B699CE702B0BDE8F047BB
:10E6300000F01EB8084B02221A70FFF719FF02B053
:10E64000BDE8F047FFF716BFB9330020CC330020F8
:10E65000C4320020C8330020B8330020B433002077
:10E66000C433002090330020C033002098330020B2
:10E670002DE9F043504A51491378514E03EB83037F
:10E6800002EB83034FF08057DD681A69B3F806E0A8
:10E690001C89386905EB450301EB830381B2B3F8AC
:10E6A00008805889D3F80490B2FBF1FC0EEB040308
:10E6B00001FB1C214FF0000C00FB08901344C6F82E
:10E6C00000C009BB396989B28E4536D083425ED01D
:10E6D000032D32D03D69DFF8F4E02244ADB2B2FB45
:10E6E000F5F105FB11229208CEF800203A6992B2AA
:10E6F000B3FBF2F102FB113272BB324B02221A70F1
:10E70000BDE8F043FFF7E6BE032D16D03D69DFF804
:10E71000BCE02244ADB2B2FBF5F105FB1122920838
:10E72000CEF8002083423A69E7D092B2B3FBF2F10F
:10E7300002FB1132002AE0D00EE04FF08053224954
:10E740001B69204803249BB20470B2FBF3F20A60F9
:10E75000BDE8F043FFF7BEBE4FF080549BB2216985
:10E76000226980B289B292B2B0FBF1F1B3FBF2F24E
:10E7700091421CD02269206980B2B3FBF0F100FB0A
:10E78000113392B29BB2D31A9B083360B5E7002CC9
:10E79000D3D0032DD1D03B690C4822449BB2B2FBAD
:10E7A000F3F103FB11239B0803603B69A5E7C31A40
:10E7B0009B083360A1E700BFC432002098330020DB
:10E7C00094330020B9330020CC330020C83300201C
:10E7D0002DE9F843214CBDF820C067780A2F37D0C7
:10E7E00094F800E0DFF87C9026460EEB0704092C35
:10E7F000C8BF0A3C4FF0140808FB046499F80050A5
:10E800006261207103C904F10C02E3807B1C737008
:10E81000A4F808C082E80300104BE5B908FB0E3EDF
:10E820000F4A9EF80430BEF806101160032B0AD080
:10E83000042B08D0012B0ED189F80030FFF74AFED7
:10E840002846BDE8F883FFF713FF2846BDE8F883A4
:10E850000420BDE8F8830020BDE8F883C43200201E
:10E86000C0330020B9330020F0B5294A136813F0F3
:10E87000080583B00BD027482749007851F82010AD
:10E8800023F00803136003B0BDE8F0400847234CB1
:10E89000207800EB800080002318197904292ED0FD
:10E8A000DA681F4F1F4E3F685B69009702EB420218
:10E8B000204456F822600C302A46B047237861780D
:10E8C00003EB83020133DBB204EB82020A2B4FF02D
:10E8D000020618BF2370144B157101F1FF31D5806A
:10E8E000556115811561D6604FF00002617008BF57
:10E8F00025701A7003B0BDE8F040FFF7EBBD0A4B7E
:10E9000001221A7003B0BDE8F040FFF7E3BD00BF7D
:10E91000B4330020B8330020E03F0200C4320020AE
:10E92000C033002098330020B933002070B54FF079
:10E93000102382B05B695A1C3FD04FF0805210699F
:10E9400080B2B3FBF0F34FF080521E4910690C689F
:10E9500011691269013B80B289B200FB03F0C2F376
:10E960008D0204FB01F1FFF781FD30B1112806D1C2
:10E97000154A136843F00803136002B070BD134CCE
:10E98000134A23781268009203EB83039B00E51877
:10E990002C46EA6829796B690E4E02EB4205024665
:10E9A00004F10C0056F82540A0470B4B04221A70C6
:10E9B00002B0BDE87040FFF78DBD4FF080535B693A
:10E9C000C1E700BFCC330020B4330020C4320020A4
:10E9D000C033002098330020B933002070B5244B99
:10E9E0004FF080511A6808694FF01023013A5B69B3
:10E9F00080B202FB00F05A1C14BF09694B691D4A22
:10EA00001CBF89B2B3FBF1F34FF08051013B0969A0
:10EA1000126889B282B001FB03F1FFF727FD30B124
:10EA2000112806D1144A136843F00803136002B09A
:10EA300070BD124C124A23781268009203EB8303D4
:10EA40009B00E5182C46EA6829796B690D4E02EBAC
:10EA50004205024604F10C0056F82540A0470A4B37
:10EA600004221A7002B0BDE87040FFF733BD00BF4A
:10EA7000CC330020C8330020B4330020C43200203F
:10EA8000C033002098330020B933002070B5224DE8
:10EA90002C68220782B015D4204AA307204B1068A7
:10EAA00048BF44F001044FF0020248BF2C601A70C6
:10EAB000FFF7DEFC20B1112810D144F008042C60CF
:10EAC00002B070BD164A174B127853F8223024F06A
:10EAD00008042C6002B0BDE870401847124C134A7D
:10EAE00023781268009203EB83039B00E5182C4601
:10EAF000EA6829796B690E4E02EB4205024604F181
:10EB00000C0056F82540A0470A4B04221A7002B0A8
:10EB1000BDE87040FFF7DEBCB4330020CC330020EA
:10EB2000B8330020E03F0200C4320020C033002090
:10EB300098330020B933002070B5294C237803EBBB
:10EB4000830304EB83031A464FF0805632F8081F04
:10EB5000D888956832694FF0102308445B6992B2F7
:10EB60002844B0FBF2F502FB15055A1C14BF3169AD
:10EB700073691C4A1CBF89B2B3FBF1F34FF080519B
:10EB8000013B0969126889B282B001FB0351FFF7AA
:10EB90006DFC30B1112806D1134A136843F0080305
:10EBA000136002B070BD2378104A114E12680092B3
:10EBB00003EB83039B00E5182C46EA6829796B690F
:10EBC00002EB4205024604F10C0056F82540A0472E
:10EBD000084B04221A7002B0BDE87040FFF77ABCFF
:10EBE000C432002094330020B4330020C03300200E
:10EBF00098330020B933002070B5164B82B01868E6
:10EC0000FFF736FC30B1112806D1134A136843F0E0
:10EC10000803136002B070BD104C114A23781268CB
:10EC2000009203EB83039B00E5182C46EA682979E0
:10EC30006B690C4E02EB4205024604F10C0056F8DB
:10EC40002540A047084B04221A7002B0BDE870406E
:10EC5000FFF740BCCC330020B4330020C432002086
:10EC6000C033002098330020B933002070B52D4DFB
:10EC70002D4A2C68210782B00AD512782B4B53F805
:10EC8000223024F008042C6002B0BDE87040184720
:10EC900001214FF0102311705B695A1C3DD04FF0D9
:10ECA0008052106980B2B3FBF0F34FF080522049DC
:10ECB00010690E6811691269013B80B289B200FBCC
:10ECC00003F0C2F38D0206FB01F1FFF7CFFB20B189
:10ECD000112804D144F008042C6002B070BD154C1A
:10ECE000154A23781268009203EB83039B00E51812
:10ECF0002C46EA6829796B69104E02EB4205024600
:10ED000004F10C0056F82540A0470D4B04221A7060
:10ED100002B0BDE87040FFF7DDBB4FF080535B6988
:10ED2000C3E700BFB4330020B8330020E03F020047
:10ED3000CC330020C4320020C033002098330020A0
:10ED4000B933002070B54FF0102382B05B695A1CB4
:10ED50003AD04FF08052106980B2B3FBF0F34FF01D
:10ED60008051013B0A69086992B202FB03F380B249
:10ED7000B3FBF0F0FFF77CFB30B1112806D1144A49
:10ED8000136843F00803136002B070BD114C124ABF
:10ED900023781268009203EB83039B00E5182C464E
:10EDA000EA6829796B690D4E02EB4205024604F1CF
:10EDB0000C0056F82540A047094B04221A7002B0F7
:10EDC000BDE87040FFF786BB4FF080535B69C6E734
:10EDD000B4330020C4320020C03300209833002018
:10EDE000B9330020F0B5414C2578AF007B194FF0C6
:10EDF000805604EB83033069DA8880B2824283B0A4
:10EE000018D81E46596936F8080FB3689208184496
:10EE1000FFF72CFB30B111282CD1354A136843F091
:10EE2000080313603D4404EB8504324BE2881A600A
:10EE300003B0F0BD1F46356937F808EF5969B86867
:10EE40003669ABB2D21A704410441144C6F38D0235
:10EE5000FFF70CFB30B111282CD1254A136843F081
:10EE6000080313604FF08053224A1B699BB2136062
:10EE700003B0F0BD2378204ADFF884C01268009206
:10EE800003EB83039B0004EB030E7646DEF80C20B5
:10EE90009EF80410DEF8143002EB420E024606F132
:10EEA0000C005CF82E60B047144B04221A70FFF778
:10EEB00011FBB7E72378104A114E1268009203EB5A
:10EEC00083039B00E5182C46EA6829796B6902EBFD
:10EED0004205024604F10C0056F82540A047074BB6
:10EEE00004221A70FFF7F6FABCE700BFC432002014
:10EEF000B433002090330020C0330020B933002009
:10EF0000983300202DE9F0436A4D2C6814F008086E
:10EF100083B05BD1684E694B96F800C01F684FEA1A
:10EF20008C0E0EEB0C0206EB82024FF08059136937
:10EF3000D1881089D9F81020013B0B440344002FDD
:10EF400050D15F4A10684FF08052126992B2B3FB01
:10EF5000F2F398427FD375D0002F74D1E6444FEA84
:10EF60008E0E7644544C3179042900F09F80F2686B
:10EF70005448554D00687369009002EB420204EB5F
:10EF80000E0055F822500C303A46A8472378617895
:10EF900003EB83020133DBB204EB82020A2B4FF056
:10EFA000020501F1FF3118BF2370484B1771D7805C
:10EFB000576117811761D560617008BF2770002203
:10EFC0001A7003B0BDE8F043FFF784BA404A414BE2
:10EFD000127853F8223024F008042C6003B0BDE806
:10EFE000F04318473649086892B2B3FBF2F2824206
:10EFF000A9D1394B3649C3F8008044F001024FF0E3
:10F00000102381F800802A6059694B1C4BD0D9F835
:10F0100010309BB2B1FBF3F34FF080515A1E0B69D5
:10F0200008699BB203FB02F380B2B3FBF0F0FFF779
:10F030001FFA20B111281ED144F009042C6003B03E
:10F04000BDE8F0833FB1224B03221A7003B0BDE844
:10F05000F043FFF771BD20491D4B002702220F60CE
:10F060001A70FFF705FA0028E9D0112803D144F0FF
:10F0700008042C60E3E73378124A134D12680092BB
:10F0800003EB83039B00F4182646E2686369217949
:10F0900002EB4204024655F8244006F10C00A0475A
:10F0A0000A4B04228CE7D9F81430B5E7074B01224C
:10F0B00086E700BFB4330020C43200209433002020
:10F0C000CC330020C033002098330020B933002017
:10F0D000B8330020E03F0200C83300202DE9F041A2
:10F0E000894E3468230782B000F196808749884AA8
:10F0F0000B681268581C0860002A4DD1854F3B7878
:10F1000003EB83039D0007EB050E0EF1080C4FF097
:10F110008053DCF80820BEF80680BEF808101B6992
:10F12000013A42440A449BB2B2FBF3F39842C0F066
:10F130008280794B7CD0D3F80080B8F1000F00F0CA
:10F14000A68014F0010340F09A8074484FF010221A
:10F1500044F001010370316053695A1C00F0CC8007
:10F160004FF08052106980B2B3FBF0F34FF0805142
:10F17000013B0A69086992B202FB03F380B2B3FB58
:10F18000F0F0FFF775F920B1112863D144F00904BC
:10F19000346002B0BDE8F0816049042008704FF08F
:10F1A00080554FF010212869496980B24F1C08BF73
:10F1B000696903FB00F018BF2B694FF080551CBF35
:10F1C0009BB2B1FBF3F14B1E296989B201FB03F13C
:10F1D000FFF74CF90028DCD0112835D04D4C504AAF
:10F1E00023781268009203EB83039B00E5182C46FA
:10F1F000EA684C4E29796B6902EB4205024604F13C
:10F200000C0056F82540A047474B04221A7002B064
:10F21000BDE8F041FFF75EB9404A444B127853F81D
:10F22000223024F00804346002B0BDE8F0411847F1
:10F230001B68002B85D1394B02221A70FFF718F991
:10F240000028A6D0112805D144F00804346002B08B
:10F25000BDE8F0813B78324A324D1268009203EBF0
:10F2600083039B00FC182746E2682179636902EB5F
:10F270004204024655F8244007F10C00C3E7274B2F
:10F2800003221A7002B0BDE8F041FFF755BC9EF8AA
:10F290000410042934D0DCF804202148214C0068F3
:10F2A000DEF81430009002EB4202781954F8224044
:10F2B0000C304246A0473B78797803EB8302013358
:10F2C00007EB8202DBB20A2B4FF0020401F1FF319F
:10F2D00082F80480A2F80680C2F81480A2F80880A0
:10F2E000C2F81080D46018BF3B70797008BF87F8EF
:10F2F00000800D4B002289E74FF080535B6935E7B2
:10F30000094B012282E700BFB4330020CC33002038
:10F31000C8330020C432002094330020B8330020CA
:10F32000C033002098330020B9330020E03F0200B2
:10F33000F0B52A4C2A4D20782B682A4E2A4F83B0EC
:10F3400000EB80008000009323181846DA681979D2
:10F350005B6902EB42020C3056F822600022B04793
:10F3600023786178214E03EB8302013304EB8202A0
:10F37000DBB200200A2B10611071D0801081506127
:10F3800001F1FF314FF0020E04BF20700346184810
:10F39000C2F80CE0C9B24FF00002617018BF2370D0
:10F3A00002703A60326009B903B0F0BD03EB830329
:10F3B00004EB83042379E2882A60032B09D0042B11
:10F3C00007D0012BF0D1037003B0BDE8F040FFF788
:10F3D00081B803B0BDE8F040FFF74AB9C43200205D
:10F3E000C033002098330020C43300209033002025
:10F3F000B93300202DE9F041674D2B7813F0FB0F56
:10F4000082B01CD00228044613D0032817D16349C8
:10F410000A6810071FD5022B14D0032B01D0012B33
:10F420000DD122F008020A6002B0BDE8F041FFF7FA
:10F4300051B8022B06D0032B59D0012B17D002B0A4
:10F44000BDE8F081564A574B127853F8223002B08B
:10F45000BDE8F041184754490A680132B2F57A7F95
:10F460000A6078D0022BDFD14D4A504BECE74B4A73
:10F4700013681E0766D44E4F4E4A3B78166803EB5E
:10F4800083039A00BB18D9888E1BB6B2DE80002E8B
:10F490005CD1D868DFF824E11979D3F81480DFF85B
:10F4A00020C1DEF80030009300EB400EB818434650
:10F4B00032460C305CF82EC0E0473B78797803EB9D
:10F4C00083020133DBB207EB82020A2B01F1FF3129
:10F4D00018BF3B704FF000031671D680566116813D
:10F4E000D4601661797008BF3E702B709CE72B4A80
:10F4F00013681C0726D42E4C2F4B267818684FEA29
:10F50000860E0EEB060104EB810101300A691860DA
:10F510004FF08053CF881B690989013A3A440A4465
:10F520009BB2B2FBF3F39842FFF47EAF2ED0764449
:10F5300004EB86042379042B25D002B0BDE8F0410A
:10F54000FFF7F6BE23F0080313606DE702B0BDE8D5
:10F55000F041FFF747BC1648184A0378126800923A
:10F5600003EB83039B00C418154EE268636921799D
:10F5700002EB420220460C3056F822400D22A047F2
:10F5800004232B7050E701232B704DE70D4B1B68B4
:10F59000002BCCD148E700BFB9330020B4330020A2
:10F5A000B8330020F43F0200C4330020E03F0200E3
:10F5B000C432002090330020CC330020C033002020
:10F5C00098330020943300204A4BDFF844C1F0B553
:10F5D000494C4A4F4A4E4B4DDFF838E10022022198
:10F5E0004FF010201A705A701A71DA801A615A613D
:10F5F0001A811A765A835A629A629A8383F82C2067
:10F60000DA859A63DA631A8683F84020A3F84220E9
:10F61000DA641A65A3F8442083F85420A3F856202E
:10F620001A665A66A3F8582083F86820D9601962D0
:10F6300059639964D9652280A3F86A2040691967E3
:10F640005A679A67A3F86C2083F87C20A3F87E2081
:10F65000C3F88410C3F88820C3F88C20A3F8802056
:10F6600083F89020A3F89220C3F89810C3F89C2048
:10F67000C3F8A020A3F8942083F8A420A3F8A62020
:10F68000C3F8AC10C3F8B020C3F8B420A3F8A82086
:10F6900083F8B820A3F8BA20C3F8C010C3F8C42078
:10F6A000C3F8C820A3F8BC20421C4FF080534FF091
:10F6B000805214BF1B6958691269134918BF9BB265
:10F6C00092B218BFB0FBF3F0104B033802FB00F20C
:10F6D0000424002038703060286018601881588138
:10F6E000D8609882D8820C60CCF80020CEF8000058
:10F6F000F0BD00BFC4320020B0330020B933002079
:10F70000C433002090330020B4330020983300200D
:10F71000BC330020CC330020354B1B685B0701D481
:10F720000820704770B169B103685BB12DE9F04101
:10F730004FF080548388226992B2934204D9072003
:10F74000BDE8F0810E2070470F2BF8D9C288002A3F
:10F75000F5D04FF010254FF0805E6D69254EB5F164
:10F76000FF3F14BF2469646937681CBFA4B2B5FBAE
:10F77000F4F4DEF81050013CADB203FB027205FB5D
:10F7800004F4A242DBD813F00303D8D11A4CB4F826
:10F7900000C0BCF1020F28D00C224F60C1F800C09D
:10F7A00002FB0CF2154D0168A950A918B0F80680AB
:10F7B00082884F600A81A1F80A80DEF81050DEF8D6
:10F7C0001000DEF81010ADB208FB025289B20CF145
:10F7D000010C80B2013A92FBF0F201FB0277A4F82F
:10F7E00000C037601846BDE8F0810420BDE8F08114
:10F7F000B4330020BC330020B03300209833002005
:10F80000134B1B685B0701D40820704728B122B155
:10F810000368012B03D9072070470E20704770B48E
:10F8200003EB4304A4000B4D2E592C444EB1466803
:10F8300065892089646800FB016105FB0040814205
:10F8400002D3072070BC7047136051600020F9E7B5
:10F85000B433002098330020F0B51D4C24686707AE
:10F8600083B002D4082003B0F0BD31B128B10468E0
:10F87000012C05D9072003B0F0BD0E2003B0F0BD68
:10F8800004EB4404A400134D2E592C44002EF1D057
:10F89000268965896468476806FB0544A742E9D262
:10F8A000002AE7D09642E5D3D418A642E2DB8E07C1
:10F8B00001D01020D7E79D07FBD1BC07F9D11C462A
:10F8C000009413460A4601460120FEF781FFCAE76D
:10F8D000B433002098330020F0B51D4C246867072E
:10F8E00083B002D4082003B0F0BD31B128B1046860
:10F8F000012C05D9072003B0F0BD0E2003B0F0BDE8
:10F9000004EB4404A400134D2E592C44002EF1D0D6
:10F91000268965896468476806FB0544A742E9D2E1
:10F92000002AE7D09642E5D3D418A642E2DB8E0740
:10F9300001D01020D7E79D07FBD1BC07F9D11C46A9
:10F94000009413460A4601460420FEF741FFCAE729
:10F95000B4330020983300202DE9F041254C246871
:10F96000660782B003D4082002B0BDE8F08139B147
:10F9700030B10C68012C07D9072002B0BDE8F08136
:10F980000E2002B0BDE8F08104EB4404A4001A4F3D
:10F990003D593C44002DEFD0268965896468D1F833
:10F9A00004E006FB0544A645E6D2002AE4D09642D0
:10F9B000E2D3D418A642DFDB850701D01020D3E7BD
:10F9C0009C07FBD11EF00304F8D1884603EB0E011F
:10F9D0001646054604F0D4FAD8F8002000960C2309
:10F9E00003FB02F240462B460221BD582246A8479F
:10F9F0002046B9E7B433002098330020204B1B6821
:10FA00005B0701D40820704720B10368012B03D99C
:10FA1000072070470E20704770B503EB43039B002F
:10FA2000184AD45882B013444CB11A465D6832F873
:10FA3000086F4468538806FB03539C4202D3072097
:10FA400002B070BDA20701D01020F9E7651BB5FB1D
:10FA5000F6F206FB1255002DF1D1B1FBF6F206FBD2
:10FA6000121292B2002AEAD10029E8D00C44A34233
:10FA7000E5D30B46009201460320FEF7A9FEDFE71F
:10FA8000B433002098330020064B1B685B0701D479
:10FA90000820704720B1044B5B780360002070475A
:10FAA0000E207047B4330020C432002010B14368E8
:10FAB00001201847704700BF38B5194C94F85450CE
:10FAC0000DB1082038BD4FF0FF3306200146FF225C
:10FAD00023636363A363E36323646364A364E364F2
:10FAE00023606360A360E36023616361A361E361FA
:10FAF000236284F850306362A36284F85230E36278
:10FB000084F8533084F85120FEF788FC054A4FF002
:10FB100000410123C2F8041384F85430284638BD4C
:10FB2000D033002000600040034B93F854000030B5
:10FB300018BF0120704700BFD0330020F0B5634CE0
:10FB4000251895F93030002B01DB0820F0BD91F825
:10FB500003E09446BEF1000F56D02368013300F055
:10FB6000AD80082600256B1C584F54F82320013225
:10FB700051D0AB1C9E4245D957F8232001324AD0C0
:10FB8000EB1C9E423ED957F82320013243D02B1D57
:10FB90009E4237D957F8232001323CD06B1D9E423C
:10FBA00030D957F82370013735D0AB1D9E4229D983
:10FBB00054F82320454F01322DD0EB1D9E4221D910
:10FBC00057F82320013226D005F108039E4219D9A7
:10FBD00057F8232001321ED005F109039E4211D9A6
:10FBE00057F82320013216D005F10A039E4209D9A5
:10FBF00057F8237001370ED00B35AE4202D9E36AB5
:10FC0000013307D00420F0BD236A01334ED00C2607
:10FC10000825A8E70B232618DDB244F823C086F890
:10FC20003050BEF1000F02D1234483F848008B7896
:10FC3000ABB94A784FF0A04600F5E073920046F861
:10FC40002320CB78ABB96AB2083A1444097894F807
:10FC5000502042EA811284F850201846F0BD8300FB
:10FC600003F1A043D3F8002722F00202C3F80027D3
:10FC7000E7E76BB29B0003F1804303F5C0430A78CA
:10FC8000D3F8101521F4473121F44071C3F8101551
:10FC90001204000202F44031D3F8104500F4F85287
:10FCA0000A432243C3F810250020F0BD082685F83A
:10FCB00030603346C4F820C03546B5E7002385F8E8
:10FCC0003030C4F800C01D46B1E700BFD03300207B
:10FCD000F0B42E4D2E1882B096F8302053B2072B78
:10FCE0001CDD2B4493F848309B09032B40D0012B9B
:10FCF0000CBF4FF400314FF44031800000F1A040C0
:10FD0000D0F8002722F44032C0F80027D0F800379E
:10FD10000B43C0F8003702B0F0BC7047072AFAD88E
:10FD2000980000F1804000F5C04003F140029200CD
:10FD3000D0F8104592B202F18042002744F001044D
:10FD400002F5C042C0F810450197019817600029DC
:10FD5000E1D096F9302055F82220002ADBD001228C
:10FD60000B4902FA03F3C1F8043302B0F0BC704748
:10FD70004FF0A0420123D2F810258340134214BF54
:10FD80004FF440314FF40031B7E700BFD0330020CB
:10FD9000006000404FF0A043D3F8103523FA00F084
:10FDA00000F00100704700BF2DE9F04FA94B1A6821
:10FDB000012A83B000F0B2800024A74B1A68012A00
:10FDC00000F0BE80A54B1A68012A00F0CB80A44B3E
:10FDD0001A68012A00F0D880A24B1A68012A00F0A4
:10FDE000E580A14B1A68012A00F0F2809F4B1A6847
:10FDF000012A00F0FF809E4B1A68012A00F00C8156
:10FE00009C4B1A68012A00F019814FF0000814F089
:10FE1000FF0F17D0E20700F13581A30700F1418100
:10FE2000670700F14D81260700F15981E50600F1D1
:10FE30006581A00600F17181610600F17D812206D5
:10FE400000F18981002C02DB03B0BDE8F08F8A4D00
:10FE50004FF0FF36A5F153074FF0000A874C4FF0E3
:10FE6000000914F8011FFF2920D0C9B221F0C000F9
:10FE700026FA00F3DB0719D53B18890993F93030CE
:10FE800057F823204AB34FF0010E03290EFA00FE63
:10FE900029D0830003F1A0431EEA080FD3F800C75E
:10FEA000CCF3014C10D1BCF1030F1FD0AC42D8D120
:10FEB000B9F1000FC8D04FF0A043D3F810359845E2
:10FEC000C2D098465646C9E7BCF1020FEED10329CD
:10FED00011D0002AEAD09047E8E70329E6D14FF095
:10FEE000010E0EFA00FE4AEA0E0AD2E70329F0D10B
:10FEF0004FF4003B01E04FF4403BD3F800C72CF433
:10FF0000403CC3F800C7D3F800E709F101094BEA08
:10FF10000E0E5FFA89F9C3F800E7DAE75849D1F81D
:10FF2000041311F001043FF448AF002119601B686D
:10FF30000093009B484B14461A68012A7FF442AF95
:10FF40004F4AD2F8042391077FF53CAF00221A6094
:10FF50001B680093009B414B1A68012A44F002047D
:10FF60007FF435AF464AD2F8042352077FF52FAF0E
:10FF700000221A601B680093009B394B1A68012A03
:10FF800044F004047FF428AF3D4AD2F80423170755
:10FF90007FF522AF00221A601B680093009B314B53
:10FFA0001A68012A44F008047FF41BAF344AD2F8DF
:10FFB0000423D6067FF515AF00221A601B68009354
:10FFC000009B294B1A68012A44F010047FF40EAFFD
:10FFD0002B4AD2F8042395067FF508AF00221A6059
:10FFE0001B680093009B214B1A68012A44F02004EF
:10FFF0007FF401AF224AD2F8042350067FF5FBAE0E
:020000022000DC
:1000000000221A601B680093009B194B1A68012A92
:1000100044F040047FF4F4AE194AD2F804231106E8
:100020007FF5EEAE00221A601B680093009B114B17
:100030001A68012A44F080047FF4E7AE00221A60B7
:100040001B6801934FF0A043019AD3F8108544F048
:100050000044DCE6006100400461004008610040AB
:100060000C610040106100401461004018610040C4
:100070001C6100407C610040233400201F340020BC
:10008000006000403A4B3B4AD3F81005D3F81015F6
:100090001368C0F30420C1F301419847A3077FF51B
:1000A000BFAE334B334AD3F81405D3F81415536855
:1000B000C0F30420C1F30141984767077FF5B3AE51
:1000C0002B4B2C4AD3F81805D3F818159368C0F3B6
:1000D0000420C1F30141984726077FF5A7AE244BC2
:1000E000244AD3F81C05D3F81C15D368C0F30420A8
:1000F000C1F301419847E5067FF59BAE1C4B1D4AB5
:10010000D3F82005D3F820151369C0F30420C1F3F8
:1001100001419847A0067FF58FAE154B154AD3F8DD
:100120002405D3F824155369C1F30141C0F3042019
:10013000984761067FF583AE0D4B0E4AD3F828052C
:10014000D3F828159369C0F30420C1F301419847FF
:1001500022067FF577AE064B064AD3F82C05D3F876
:100160002C15D369C0F30420C1F30141984769E617
:1001700000600040D03300204FF0A042D2F8043598
:10018000D94301F4002103F40023C2F80815C2F892
:100190000C3570470D282DE9F047044607D00E288E
:1001A00037D00F2837D0102837D0BDE8F08700258A
:1001B000012911D020D30229F7D1214B05EB4505A8
:1001C0001D446E78002EF0D01E4B1B68002BECD027
:1001D0003046BDE8F0471847DFF864806F007B19B0
:1001E00008EB030218F803605378C3B92F4447445F
:1001F000154BBA785A55E5E71448FCF76FFB1049E0
:10020000114A05EB45030B44565D9B789E42CCD1C9
:10021000D8E70125CCE70225CAE70325C8E70C4B40
:10022000DFF830901968094801EB810149004A461E
:10023000FCF7E2FA0028D9D189F80040D6E700BFE0
:10024000A434002078340020A03400207C34002026
:100250007434002070340020C94B1B68DB0700D4C5
:10026000704770B5C74B1C78172C22D8DFE814F004
:10027000680075007500AE00D500F5001A013D015B
:1002800039002200390022001800500150015001AD
:10029000500150014E0058009E00780118001800CF
:1002A0004FF0A0434FF4F0110022C3F80C15C3F82F
:1002B000082570BD4FF0A042B34CD2F80435B348C6
:1002C000D94301F4802103F48023C2F80815C2F851
:1002D0000C352168002201EB8101BDE87040FCF77C
:1002E0008BBA4FF0A042A84CD2F80435A748D943A6
:1002F00001F4802103F48023C2F80815C2F80C35FC
:1003000021680022BDE87040FCF776BA4FF0A043A8
:100310004FF4F0110022C3F80815C3F80C2570BD86
:100320004FF0A04300224FF4E0104FF40031C3F827
:100330000805C3F80C25C3F80C15C3F8082570BDD3
:10034000934B1B684FF0A042DB4303F4F0130021F2
:10035000C2F80835C2F80C1570BD8D4A12684FF00E
:10036000A040D24302F4E0120025C0F80825C0F8EE
:100370000C55D0F8042582F4F01212F4003200F08B
:100380003881022C4FF40032C0F808250CBF12212E
:100390002821C0F80C557C4A1C7012687B4802FB6F
:1003A00001F1BDE870400022FCF726BA4FF0A043EF
:1003B00000224FF4D0104FF48021C3F80805C3F891
:1003C0000C25C3F80C15C3F8082570BD704A1268D7
:1003D0004FF0A040D24302F4E0120024C0F80825F8
:1003E000C0F80C45D0F8042582F4F01212F4003263
:1003F00000F0F7804FF40032C0F808250821C0F85B
:100400000C45614A6148126803241C7002FB01F12B
:10041000BDE870400022FCF7EFB95D4A12684FF06A
:10042000A040D24302F4E0120024C0F80825C0F82E
:100430000C45D0F8042582F4F01212F4003200F0DA
:10044000C1804FF40032C0F808252821C0F80C45BF
:100450004D4A4E4812680424D7E74D4A12684FF0BF
:10046000A041D24302F4E0120020C1F80825C1F8EF
:100470000C05D1F8042582F4F01212F4003200F0D9
:10048000A9804FF40032C1F80825C1F80C053E4A96
:100490003E48116805241C7049000022BDE87040E8
:1004A000FCF7AAB93A4A12684FF0A041D24302F4CD
:1004B000E0120020C1F80825C1F80C05D1F8042588
:1004C00082F4F01212F4003275D04FF40032C1F809
:1004D0000825C1F80C052C4A2C48116806241C700C
:1004E0000022BDE87040FCF787B9294B1B684FF02C
:1004F000A042DB43002103F4E0134FF40030C2F8C4
:100500000835C2F80C15C2F80C05C2F8081570BD04
:100510002048FCF7E3F9D4F1110402463ED000284C
:100520003CD11B4E4FF40023012C336010D0C82562
:10053000194B15491748096805FB04F4A3FB04434C
:100540005B0901FB03F1FCF757F9336803F4F0137F
:100550004FF0A0420021C2F80C35C2F8081570BD5A
:100560004FF0A04300224FF4C0104FF4C021C3F855
:100570000805C3F80C25C3F80C15C3F8082570BD91
:100580004C3400209C340020743400202834002097
:1005900048340020503400201F85EB511A4A13685C
:1005A0004FF0A040002103F4F013C0F80835C0F864
:1005B0000C15116070BD4FF40030C1F80C05C1F886
:1005C000082588E74FF40031C0F80C150421C0F865
:1005D00008253DE74FF40030C1F80C05C1F80825A7
:1005E00055E74FF40031C0F80C150221C0F808257A
:1005F00007E74FF40031022CC0F80C150CBF0221A4
:100600000421C0F80825C6E64834002003780D2BE5
:1006100015D00E2B15D00F2B04D0102B08BF0323A1
:1006200001D070470223084A03EB43031344587870
:100630000028F6D0054B1B68002BF2D0184700238A
:10064000F1E70123EFE700BFA43400207834002055
:10065000032803D900230B7000207047074A4FF08E
:10066000A04352F82000D3F8102501238340934380
:1006700014BF012300230B70002070470C400200C0
:10068000F8B5BF4B1A6812F0010201D11046F8BD4F
:100690000446172800F2EA81DFE810F03901490129
:1006A00049017C00A400CC00F20058002F00180083
:1006B0002F00180017017C017C017C017C017C016A
:1006C000A40125012F0144006F006F004FF0A042EC
:1006D000AC4CD2F80435AC48D94301F4802103F482
:1006E0008023C2F80815C2F80C352168002201EBFE
:1006F0008101BDE8F840FCF77FB84FF0A042A14C63
:10070000D2F80435A048D94301F4802103F48023B2
:10071000C2F80815C2F80C3521680022BDE8F8407F
:10072000FCF76AB899484FF0A0434FF4C01200217B
:100730004FF4C0251524C3F80825C3F80C150A4644
:10074000C3F80C55C3F8081504709FE7904B8F4C05
:100750001B684FF0A041DB43002003F4E0134FF48B
:1007600000360725C1F808350246C1F80C05C1F866
:100770000C65C1F80805257088E74FF0A043834851
:100780004FF4F0120021C3F80C25C3F808150A46EF
:1007900004707BE77E4B1B684FF0A042DB4303F401
:1007A000E0130020C2F80835C2F80C05D2F8043571
:1007B00083F4F01313F4003300F041814FF400335D
:1007C000C2F808350821C2F80C056E4A6F4B126852
:1007D0006D4803241C7002FB01F1BDE8F8400022C3
:1007E000FCF70AB86A4B1B684FF0A042DB4303F4E6
:1007F000E0130020C2F80835C2F80C05D2F8043521
:1008000083F4F01313F4003300F021814FF400332C
:10081000C2F808352821C2F80C055A4A5B4B126809
:10082000594804241C7002FB01F1BDE8F840002285
:10083000FBF7E2BF564B1B684FF0A042DB4303F4CB
:10084000E0130021C2F80835C2F80C15D2F80435BF
:1008500083F4F01313F4003300F001814FF40033FC
:10086000C2F80835C2F80C15464A484B116846488C
:1008700005241C7049000022BDE8F840FBF7BCBF0E
:10088000434B1B684FF0A042DB4303F4E01300210D
:10089000C2F80835C2F80C15D2F8043583F4F01309
:1008A00013F4003300F0B9804FF40033C2F8083578
:1008B000C2F80C15354B334A3348116806241C70B6
:1008C0000022BDE8F840FBF797BF4FF0A0432F4848
:1008D0004FF4F01200210C24C3F80C25C3F80815BE
:1008E0000A460470D2E64FF0A04328484FF4E012C5
:1008F00000214FF4003513241DE74FF0A043234897
:100900004FF4D01200214FF48025142413E7204B1C
:100910001E4C1B684FF0A040DB43002103F4F01392
:10092000C0F808350A46C0F80C152170AEE6184B21
:100930001B684FF0A042DB4303F4E0130020C2F831
:100940000835C2F80C05D2F8043583F4F01313F41B
:10095000003369D0022C4FF40033C2F808350CBFC5
:1009600012212821C2F80C05064B084A1B68147096
:1009700003FB01F104480022BDE8F840FBF73CBF4F
:100980004C34002074340020283400209C34002093
:10099000483400203648FBF7A1FFD4F11104024689
:1009A0002ED068BB334E4FF40023012C336011D09E
:1009B000314B324F19682E48C82505FB04F3A7FBBD
:1009C00003435B0901FB03F1FBF716FF33680246A3
:1009D00003F4F0134FF0A0410020C1F80C35C1F82A
:1009E000080553E64FF0A04325484FF4F0120021CC
:1009F0001224C3F80825C3F80C150A46047045E60E
:100A00001C490B684FF0A044002003F4F013C4F815
:100A10000835C4F80C05086038E64FF40031C2F818
:100A20000C15C2F8083545E74FF40031022CC2F826
:100A30000C150CBF02210421C2F8083594E74FF4CD
:100A40000031C2F80C150221C2F80835BDE64FF49A
:100A50000031C2F80C150421C2F80835DDE64FF468
:100A60000031C2F80C15C2F80835FDE600220DE68B
:100A70005034002048340020743400201F85EB518E
:100A80009C340020F8B5234D234E244B28600446A7
:100A900010F0020031601A601FD0214B21484FF046
:100AA0000D0E0E270F2610254A0883F800E00421BA
:100AB000DF709E715D72FBF7CFFDF0B1E3070BD5E0
:100AC0004FF0A0434FF4F0120021C3F80825C3F8FB
:100AD0000C15C3F8182510B1F8BDE207F0D4124880
:100AE000124A0021FBF75CFE0028F5D11048114A9C
:100AF0000121BDE8F840FBF753BEFBF705FE0028D7
:100B0000DCD101460C4A0D48FBF74AFEE107E2D56D
:100B1000D6E700BF4C340020743400207834002025
:100B2000A4340020204002001C40020059020200B0
:100B300040400200790102000D0602000840020058
:100B4000032801D907207047012A12D0012917D0A4
:100B500008D30229F6D10D4B00EB400003440020DE
:100B60005A707047094B00EB4000034400209A7014
:100B70007047012901D00022E8E700F10D02D2B24E
:100B800000EB400301490020CA547047A434002000
:100B900070B41D4E1D4DD6F800371D4C1D4910F088
:100BA000010F14BF4FF44032002223F440331343AB
:100BB000C6F80037D5F8003710F0020F23F44032A2
:100BC00014BF4FF4403300231343C5F80037D4F863
:100BD000003710F0040F14BF4FF44032002223F40A
:100BE00040331343C4F80037D1F8003710F0080F32
:100BF00023F4403214BF4FF4403300231343C1F8B1
:100C00000037002070BC704734000050380000509E
:100C10003C0000504000005008B50320FFF7B8FF2B
:100C200010B1062808BF002008BD00BF10B503881A
:100C3000102B08D0112B05D1264B186801381860ED
:100C400038B110BD10BD234C206880B10130206048
:100C500010BD02210122FFF773FF48B3072827D0F8
:100C60001D4B1B68002BECD0BDE810401847014617
:100C70000122FFF765FF48B1072807D0164B1B6814
:100C800003B1984720680130206010BD0120022187
:100C90000722FFF755FF08B10728EFD100200221F6
:100CA0000422FFF74DFF0028ECD00728E6D1E9E742
:100CB000012002210722FFF743FF08B10728CFD107
:100CC000002001460A22FFF73BFF0028B9D0072881
:100CD000C6D110BDB4340020B034002010B5204B74
:100CE00082B00C461860A9B100200DF10601FFF793
:100CF000AFFC08B102B010BD01200DF10701FFF7F4
:100D0000A7FC0028F6D19DF807301BBB9DF80630E4
:100D10001BBB2370134B186810B1002002B010BD2C
:100D200002210122FFF70CFF08B10728E2D10120C0
:100D300002210722FFF704FF08B10728DAD10020BB
:100D400001460A22FFF7FCFE0028E6D0072808BF6C
:100D50000020CFE702232370DCE70B232370D9E7C1
:100D6000B0340020B434002008B500F047FAFCF796
:100D7000A3FCFEE776DF70477ADF70477CDF7047C1
:100D80003CDF7047FBF7D6BC0AB90020704708B5B6
:100D90001046FBF7CFFC002008BD00BF10B504468D
:100DA000FEF728FB2046BDE8104001F097BD00BFCC
:100DB00008B5037803B108BD054B3B211888FFF740
:100DC000D9FF0028F7D0BDE80840FBF7B3BC00BF4F
:100DD000E420002010B40B78022B16D0032B11D185
:100DE0004FF0A0421031D2F80435DC4304F4002463
:100DF00003F40023C2F80845C2F80C355DF8044B33
:100E000000F08EBC5DF8044B70474FF0A0420C31EF
:100E1000D2F80435DC4304F4802403F48023C2F8C0
:100E20000845C2F80C355DF8044B00F053BC00BF18
:100E300010B5044602F07CFA204601F065FE20461B
:100E4000FFF7F4FE2388102B0ED0112B03D10B4B90
:100E50004FF6FF721A80204601F0E4FC2146084854
:100E6000BDE8104000F006BA0720FFF709FC08B102
:100E7000FBF760FC014BA2881A80ECE7E42000201D
:100E800004350020072808B51CD00A280ED00428F5
:100E900000D008BD114B13211888FFF76BFF30F00D
:100EA0000803F6D0BDE80840FBF744BC0020FFF77C
:100EB000E7FB80B9FFF7B0FE50B9FFF761FF0028EC
:100EC000F0D108BD01F026FD30F00803EAD108BDDD
:100ED000FBF730FCF1E7FBF72DFCEBE7E42000200B
:100EE00008B530B1032803D10220FFF7C9FB50B980
:100EF00008BDFFF7C5FB50B9FFF78EFE50B9FFF7ED
:100F00003FFF0028F4D0BDE80840FBF713BCFBF717
:100F100011FCF1E7FBF70EFCF1E700BF002008B57C
:100F200005210346044AFBF733FC00B908BDBDE8C0
:100F30000840FBF7FFBB00BF2C35002010B584B084
:100F400001229DF80430164862F3030304AC62F3F7
:100F5000071304F80C3D03F01EF8114982B2204635
:100F6000FFF70CFFC8B90021082202A8FBF7EAFA34
:100F70005024A02100224FF4C87302A8ADF8084005
:100F8000ADF80A10ADF80C20ADF80E30FFF7F4FE06
:100F900008B1FBF7CFFB04B010BDFBF7CBFBE2E7DA
:100FA000484002000148024900F0A8B90435002079
:100FB000D50D020070B588B000211C2201A8FBF7F6
:100FC000C1FA4FF4203600234FF4702503240A4958
:100FD0000A4A019301A8ADF812308DF81430029638
:100FE00003958DF810400691079201F053FD08B16A
:100FF000FBF7A0FB08B070BDB10D0200850D02002B
:1010000000B51D4B1D49186887B048220090002389
:10101000684602F0EBFE60BB01AA0020012102F04D
:101020004FFF18BB164802F063FFE0B99DF810307F
:1010300001A843F001038DF8103002F063FF78B986
:10104000104802F011FF40B90F4802F017FF08B135
:10105000FBF770FB07B05DF804FBFBF76BFBF3E7F6
:10106000FBF768FBECE7FBF765FBDFE7FBF762FBF1
:10107000D8E7FBF75FFBCFE744400200B83400201D
:10108000E81F0020310E02009D0D020030B585B032
:101090008DF80000FEF798FA68BB684602F044F845
:1010A00030BB002105220DF10900FBF74BFA9DF83A
:1010B0000930124A019243F00103032203F0FD03B9
:1010C00062F306136FF3C7130725102401220C489F
:1010D0008DF8093001A98DF80A508DF80B408DF874
:1010E000082002F0C5F808B1FBF724FB05B030BDBD
:1010F000FBF720FBD5E7FBF71DFBCEE7890D0200D0
:1011000000350020F0B59BB00024002138220CA847
:10111000FBF718FA01274FF0020C4FF0060E4FF4C0
:101120009676B4250CA80094214603AA0B4B06948E
:1011300003940494059409940A940B948DF830C098
:101140008DF833E08DF818700796089501F04AF98C
:1011500008B1FBF7EFFA1BB0F0BD00BFE10E0200D3
:1011600010B540F6CD4182B004460D4A0320FFF78A
:1011700089FC88B900200DF10701FFF7AFFD08B128
:10118000FBF7D8FA9DF80730A3F10203B3FA83F313
:101190005B09237002B010BDFBF7CCFAEAE700BF91
:1011A000850E020010B582B0FFF7B8FE0DF1070002
:1011B000FFF7D6FFFFF724FF9DF80700FFF766FF54
:1011C000FFF7BCFEFFF7EEFEFFF79CFFFFF7F2FE16
:1011D000032001F0CBF908B1FBF7ACFA064C20680C
:1011E00000210B464FF0FF32FBF79CFF0028F6D0A2
:1011F00002F0F4FDF3E700BFF436002000B5012053
:1012000085B000210322FBF759FD104B1860C8B1CF
:1012100001230F4A009300230192029303930D4888
:101220000D494FF48072FCF751F9012802D00420D7
:10123000FBF780FA094A136943F00403136105B010
:101240005DF804FB0420FBF775FAE1E7F4360020B3
:10125000F8360020A51102005440020000ED00E025
:10126000A0DF7047A2DF7047A5DF7047A6DF704799
:1012700063DF70470B88112B25D0502B05D0102B26
:1012800000D070478B880380704770B5002388B00A
:1012900004460D4603A8194604261422ADF806306C
:1012A000ADF80460CDF808D0FBF74CF9EB88218B42
:1012B000994217D0218C994209D003A9636820462E
:1012C000984708B070BD4FF6FF730380704701AABE
:1012D0002088FFF7C9FF0322029B8DF80C201B68B2
:1012E0000793EAE70DEB06022088FFF7BDFF022215
:1012F000029B8DF80C201B680693DEE72DE9F04376
:101300000B4C9BB0E368A26805460F4620686168F5
:1013100006AE0FC64AF6A02306A80DF10E01ADF8E1
:101320000C30FFF7A5FF002840F0D18102E000BF9C
:10133000584002004FF6FF736F602B80012003A915
:10134000AA1CFFF78DFF08B1FBF7F4F9206861686C
:10135000A268E3680AAE0FC64AF6A1230DF1120196
:101360000AA8ADF81030FFF783FF00211C2213A854
:10137000FBF7E8F89DF84C3001AF43F002036FF340
:10138000C3030021032238468DF84C30FBF7DAF80E
:101390009DF804E09DF805309DF806909DF84CC03E
:1013A00018974FF0010868F3030E68F3030302AEC9
:1013B00068F3071E68F3071368F342094CF0100C3A
:1013C0000021032230468DF804E08DF805308DF8B9
:1013D00006908DF84CC0FBF7B5F89DF808309DF8E5
:1013E00009E09DF80AC068F303030EF0F00E68F3FD
:1013F000071368F3420C6FF3071E002114220EA896
:101400008DF808308DF809E08DF80AC0FBF79AF8DE
:1014100004234FF0000E0DF110090DF11408ADF882
:101420004430ADF8403013A90EAA68880F9605F134
:101430000803CDF838908DF814E08DF815E08DF89C
:1014400016E08DF817E0CDF84880FFF70BFF08B1E4
:10145000FBF770F920686168A268E3680DF1280E57
:10146000AEE80F004AF6A2230DF112010AA8ADF86A
:101470001030FFF7FDFE00211C2213A8FBF762F8D5
:101480009DF84C3043F002036FF3C303384600214C
:1014900003228DF84C30FBF755F89DF804209DF899
:1014A0000530189701279DF806E09DF84CC067F3BA
:1014B000030267F3071267F3030367F3071367F386
:1014C000420E4CF0100C00218DF80420304603220F
:1014D0008DF805308DF806E08DF84CC0FBF732F83A
:1014E0009DF808309DF809E09DF80AC067F30303F2
:1014F0000EF0F00E67F3071367F3420C6FF3071E4D
:10150000002114220EA800278DF808308DF809E07C
:101510008DF80AC0FBF716F84FF0040E6888CDF876
:10152000389013A90EAA05F110030F96CDF8488044
:10153000ADF844E0ADF840E08DF814708DF815700A
:101540008DF816708DF81770FFF78CFE08B1FBF759
:10155000F1F820686168A268E3680AAF0FC74AF62D
:10156000A3230DF112010AA8ADF81030FFF780FE99
:1015700000211C2213A8FAF7E5FF9DF84C3000214A
:1015800043F00A03032230468DF84C30FAF7DAFFB5
:101590009DF808709DF809309DF80AE0012262F379
:1015A000030762F3030362F3071362F3420E62F36D
:1015B0000717002114220EA88DF808708DF8093045
:1015C00000278DF80AE0FAF7BDFF4FF0040E688897
:1015D000CDF8389013A90EAA05F118030F96CDF88F
:1015E0004880ADF844E0ADF840E08DF814708DF817
:1015F00015708DF816708DF81770FFF733FE08B16F
:10160000FBF798F820686168A268E3680AAC0FC429
:101610004AF6A4230DF112010AA8ADF81030FFF725
:1016200027FE00211C2213A8FAF78CFF9DF84C30EE
:10163000002143F00A03032230468DF84C30FAF7BC
:1016400081FF9DF808409DF809309DF80A7001223D
:1016500062F3030462F3030362F3071362F30714F4
:1016600062F34207002114220EA88DF808408DF87D
:10167000093000248DF80A70FAF764FF042713A9D3
:101680000EAA6888CDF8389005F120030F96CDF8A2
:101690004880ADF84470ADF840708DF814408DF876
:1016A00015408DF816408DF81740FFF7DBFD08B1A7
:1016B000FBF740F84FF0A0434FF480214FF4002295
:1016C000C3F81815C3F818251BB0BDE8F083FBF765
:1016D00031F82FE602884FF6FF739A421ED070B59C
:1016E000044686B00D46042302A800211022ADF85E
:1016F0000630FAF727FF26892088059500220DF18C
:10170000060302A90124ADF808608DF80A40ADF87F
:101710000C200493FFF7AAFD06B070BD704700BF10
:1017200002884FF6FF739A421ED070B5044686B009
:101730000D46042302A800211022ADF80630FAF766
:1017400001FF268A2088059500220DF1060302A9D3
:101750000124ADF808608DF80A40ADF80C20049320
:10176000FFF784FD06B070BD704700BF71DF7047A2
:1017700072DF704779DF70477DDF704765DF704744
:10178000F0B50488012C83B007D0148804F1020E50
:101790009E4505D90C2003B0F0BD072003B0F0BD75
:1017A0000578012D04D1457802352544AB42F1D3AB
:1017B000023B0F461C1B02A9A4B2054621F8024DAC
:1017C00007EB0E001646FFF7D7FF0028E3D12B7872
:1017D000022B17D0012B11D023460821FE2BD9D87C
:1017E0003288581CB8543288013292B23280B954CF
:1017F00032880132134433800020CCE76B789C425E
:10180000EBD2E9E7BDF806309C42E5D30921E5E7D4
:101810002DE9F04F85B083460E9D00882C880194F9
:10182000BDF83C9000284ED000278A4616469846C0
:101830003C4604E0BBF800300134A34226DDDBF86F
:10184000043053F8240003900DF10B0103A800228B
:10185000FFF794FF18BB9DF80B30B342EAD10FB3EA
:101860002A8893194B4519DC424403A80DF10B015A
:101870000127FFF783FF90B92B889DF80B201344B5
:101880002B80BBF800300134A342D8DCDFB12B88B9
:10189000019A013B9B1A9BB2FF2B12D90C2005B079
:1018A000BDE8F08F2B885A1C334402334B4592B26B
:1018B000F4DC2A8008F802A02A88013292B22A8039
:1018C000D2E708F80230002005B0BDE8F08F00BF75
:1018D0002DE9F047002317881380446B84B0BCB116
:1018E000022F247803D80C2004B0BDE8F08702232F
:1018F0000B70138801339BB211251380CD541388CC
:1019000001339BB21380CC5414880134A4B21480E8
:10191000036B002B6FD004F11205BD42E3D81125F3
:101920000D5514880134A4B2102514800D55148867
:101930000134A4B21480DD7B0D5514880134A4B2A7
:1019400014809D7B0D5514880134A4B214805D7BF6
:101950000D5514880134A4B214801D7B0D551488D4
:101960000134A4B21480DD7A0D5514880134A4B278
:1019700014809D7A0D5514880134A4B214805D7AC8
:101980000D5514880134A4B214801D7A0D551488A5
:101990000134A4B21480DD790D5514880134A4B249
:1019A00014809D790D5514880134A4B214805D799A
:1019B0000D5514880134A4B214801D790D55148876
:1019C0000134A4B21480DD780D5514880134A4B21A
:1019D00014809D780D5514880134A4B214805D786C
:1019E0000D5514880134A4B214801B780B5514884B
:1019F0000134A4B2148090F82E30002B5FD190F8FF
:101A00002D300D4606469046002B71D1B378002B41
:101A100040F0A280F378D3B1E21CBA423FF663AF44
:101A200002222A55B8F80020013292B20121A8F80A
:101A30000020A954B8F800200A4492B2A8F8002067
:101A4000AB54B8F800400C44A4B2A8F80040726847
:101A5000D2B1E31CBB4212783FF645AF02232B55AF
:101A6000B8F8003001339BB20A21A8F80030E954DD
:101A7000B8F8003001339BB2A8F80030EA54B8F847
:101A800000300133A8F800303389002B40F0118179
:101A9000338A002B40F08F81338B002B40F0A681DE
:101AA000336A002B00F0C580B8F80020911DB942C0
:101AB0003FF619AF1988052977D8072014E7E51CE8
:101AC000BD423FF610AF02250D5514880134A4B273
:101AD0001C2514800D5514880134A4B2013B1480D8
:101AE000032BEAD8DFE813F0610164015E015701BE
:101AF0000934BC423FF6F7AE02A8FFF737FE0028D4
:101B00007FF4F2AEB8F800300822EA54B8F800309A
:101B100001339BB21B22A8F80030EA54B8F8000049
:101B2000013080B2A8F80000062228440DF1090116
:101B300002F026FAB8F800309DF8082006339BB270
:101B4000A8F8003002B10122EA54B8F8004001348C
:101B5000A4B2A8F8004059E70434BC423FF6C3AE33
:101B600002A8FFF707FE00287FF4BEAEB8F80030E9
:101B7000BDF808200321E954B8F8003001339BB2C6
:101B80001921A8F80030E954B8F8003001339BB2AD
:101B9000E918A8F80030100AEA544870B8F8004074
:101BA0000234A4B2A8F8004034E76FF4486C01EBAB
:101BB0000C0080B24FF27D34A0427FF67EAF588891
:101BC00005287FF67AAF6FF4486E86441FFA8EFEC2
:101BD000A6457FF672AF4FF6FF74A14204D0A04233
:101BE00002D081423FF669AF0521A954B8F8002020
:101BF000013292B21221A8F80020A954B8F80020AE
:101C0000013292B2A8F800201988A9542A44090A7E
:101C10005170B8F80020023292B2A8F800205B8818
:101C2000AB542A441B0A5370B8F800300233A8F8AA
:101C30000030746AACB3A288B8F80010131D0B44CE
:101C4000BB423FF650AE931CFE2B3FF64CAE033228
:101C50006A54B8F8003001339BB2FF22A8F8003074
:101C6000EA54B8F8003001339BB2A8F8003022885B
:101C7000EA542B44120A5A70B8F80000023080B2BD
:101C8000A8F80000A28862B1A16800293FF415AF4E
:101C9000284402F075F9A388B8F800201344A8F886
:101CA000003096F82C30FBB93378002B6CD11846F5
:101CB0001AE606F108040221CDF8008001972046BB
:101CC0000A462B46FFF7A4FD00287FF40DAECDF8A1
:101CD000008001972046062110222B46FFF798FD31
:101CE00000287FF401AED3E6B46A002C3FF4E5AEE1
:101CF000A2880232FE2A3FF6F6ADB8F800304FF067
:101D000000094FF0160A07E0B46A04EB8104A288C8
:101D10000232FE2A3FF6E7AD0132EA54B8F800304D
:101D200001339BB2A8F8003005F803A0B8F80030E2
:101D300001339BB2A8F800302288EA542B44120ADF
:101D40005A70B8F8003002339BB2A8F80030A1886E
:101D5000E8180A4669B1A3681946002B3FF4ADAEF6
:101D600002F00EF9A388B8F8002013449BB2A8F83B
:101D7000003009F1010996F82C205FFA89F94A45EB
:101D800009EB4901C0D88FE73046294642463B4619
:101D9000FFF7F6FCA8E503230B5514880134A4B221
:101DA00014802CE602230B55F7E700230B55F4E7CC
